:020000040800F2
:10000000B007002091010008950C0008BD0B000806
:10001000250C0008DD0700082F2300080000000061
:10002000000000000000000000000000C5140008EF
:100030009F0800080000000035110008DD160008C8
:10004000AB010008AB010008AB010008AB010008E0
:10005000AB010008AB010008AB010008AB010008D0
:10006000AB010008AB010008AB010008AB010008C0
:10007000AB010008AB010008AB010008AB010008B0
:10008000AB010008AB010008AB010008AB010008A0
:10009000AB010008AB010008AB010008AB01000890
:1000A000AB010008AB010008AB010008AB01000880
:1000B000FD190008151A0008AB010008AB01000883
:1000C000AB010008AB010008AB010008AB01000860
:1000D000AB0100080D210008AB010008AB010008CE
:1000E000AB010008AB010008AB01000800F002F80A
:1000F00000F03FF80AA090E8000C82448344AAF183
:100100000107DA4501D100F034F8AFF2090EBAE880
:100110000F0013F0010F18BFFB1A43F0010318473B
:100120007830000098300000103A24BF78C878C1B9
:10013000FAD8520724BF30C830C144BF04680C60ED
:10014000704700000023002400250026103A28BF35
:1001500078C1FBD8520728BF30C148BF0B60704739
:10016000642900F05780002070471FB51FBD10B5EF
:1001700010BD00F0A7F91146FFF7F7FF02F064F990
:1001800000F0C5F903B4FFF7F2FF03BC02F003F976
:100190000948804709480047FEE7FEE7FEE7FEE71B
:1001A000FEE7FEE7FEE7FEE7FEE7FEE70448054957
:1001B000054A064B70470000E1160008ED000008F4
:1001C000B0010020B0070020B0030020B0030020E1
:1001D000704700000FB4044910B503AA029800F05C
:1001E00057F910BC5DF814FB6C0000200FB41CB56F
:1001F000074B06AA7B4469460090059800F02FF94A
:100200000020694600F03EF91CBC5DF814FB0000BC
:100210008D0200002DE9F041064600241068752982
:10022000314616A510D0AFF30080002802DA404214
:1002300013A507E031688A0701D512A502E0490736
:1002400004D511A5012401E0AFF3008000210A22AA
:1002500006F1240709E0B0FBF2FCB0FBF2F302FB6D
:100260001C00303078541846491C0028F3D123462E
:100270002A463046BDE8F04100F093B80000000087
:100280002D0000002B000000200000002DE9F047A9
:100290004FF0000A89460446C0F820A02046E168D5
:1002A0008847002876D0252806D0D4E90121904738
:1002B000206A401C2062F1E7E1682046002588475B
:1002C000C4F81CA006460027C4F818A02A2E09D09E
:1002D000304602F059F838B304EB8708303EC8F8CE
:1002E000186019E059F8041B204604EB870291615D
:1002F000E1688847012F064618D1E069002820DA16
:1003000025F020051DE0D8F8180000EB800006EB72
:1003100040003038C8F818002046E1688847064693
:1003200002F032F80028EED1012F0AD02E2E08D18B
:100330002046E16888477F1C0646022F45F02005CD
:10034000C4DBA069002803DA404245F00105A06142
:10035000E80701D025F01005B6B1A6F14100192833
:1003600002D8203645F400654A46314620462560CD
:100370004D46FFF7F5FE58B1012806D0ED1D25F0DA
:10038000070000F1080989E704E005F1040985E7A1
:1003900030468AE7206ABDE8F087704770477047AB
:1003A00070472DE9F0470D4699469246044600F104
:1003B00024080168880604D5E06921F01001216055
:1003C00000E00120A84201DD471B00E00027A169F1
:1003D0007A1902EB0900081AA0612078C00602D43D
:1003E0002046AFF30080002608E0D4E901211AF886
:1003F00006009047206A401C761C20624E45F4DBC4
:100400002078C0060AD52046AFF3008006E0D4E984
:10041000012130209047206A401C2062381EA7F13D
:100420000107F4DC07E0D4E9012118F80500904742
:10043000206A401C2062281EA5F10105F3DC20463D
:10044000AFF300802078000602D50220BDE8F087D7
:100450000120FBE701694A1C02610878704700B57A
:100460008FB0CDE901310021059105497944CDE9ED
:10047000031011466846FFF709FF0FB000BD0000EA
:10048000E5FFFFFF0A6802F8010B0A6070470000F1
:10049000074B70B50D467B44FFF7E1FF0446284645
:1004A00000F008F810B14FF0FF3070BD204670BD6D
:1004B000931F0000007B00F08000704700487047E9
:1004C000500100207546FFF7F9FFAE46050069466A
:1004D000534620F00700854618B020B5FFF766FEAA
:1004E000BDE820404FF000064FF000074FF0000835
:1004F0004FF0000B21F00701AC46ACE8C009ACE8B6
:10050000C009ACE8C009ACE8C0098D467047044694
:10051000AFF300802046FFF735FE21B1826842F03C
:100520000102826003E0826822F00102826070476B
:1005300010B504461248844208D10121401500F04C
:1005400073FE0021601500F06FFE17E00D48844235
:1005500008D10121001500F067FE0021201500F0F0
:1005600063FE0BE00848844208D10121C80300F073
:100570005BFE00214FF4004000F056FE10BD00006D
:100580000024014000280140003C014001460020B9
:100590008A6802F004020AB1012000E000207047DE
:1005A0000146C86C80B270470246002013680B40B9
:1005B0000BB1012000E000207047014600208A684E
:1005C00002F008020AB1012000E00020704700009C
:1005D00030B502460020002350680F4C20400D79B2
:1005E0000C6844EA05242043506090680B4C20407E
:1005F000D1E902542C434D7944EA450420439060EC
:10060000D06A20F470000C7C641EE4B2234340EAFC
:100610000350D06230BD0000FFFEF0FFFDF7F1FF98
:10062000F0B504460D4600200021092D11DDE068DB
:10063000A5F10A0606EB4607072606FA07F18843E6
:10064000A5F10A0606EB460603FA06F10843E06048
:100650000CE0206905EB4507072606FA07F18843F9
:1006600005EB450603FA06F108432061072A0FDA75
:10067000606B561E06EB86071F2606FA07F18843B5
:10068000561E06EB860605FA06F10843606322E073
:100690000D2A0FDA206BD61F06EB86071F2606FAF7
:1006A00007F18843D61F06EB860605FA06F10843D4
:1006B000206310E0E06AA2F10D0606EB86071F2614
:1006C00006FA07F18843A2F10D0606EB860605FA45
:1006D00006F10843E062F0BD816841F008018160E5
:1006E000704721B1826842F4A002826003E0826810
:1006F00022F4A00282607047816841F004018160A9
:100700007047000000B587B001214FF4017000F080
:100710007BFD4FF4004000F05BFD1C20ADF80400B1
:1007200000208DF8070001A91C4800F009F90120FC
:10073000ADF8040000208DF8070001A9184800F06A
:10074000FFF81848FFF7F4FE002002908DF80C0027
:100750008DF80D004FF460200490002005900120DA
:100760008DF8180002A90F48FFF732FF01210D484C
:10077000FFF7D3FE0B48FFF7AFFF00BF0948FFF7B5
:100780001CFF0028FAD10748FFF7B6FF00BF054855
:10079000FFF7FCFE0028FAD107B000BD00080140B9
:1007A000000C01400024014008B50121042000F0A4
:1007B0002BFD2020ADF8000010208DF80300032051
:1007C0008DF802006946044800F0BAF8202102487A
:1007D00000F08CF908BD00000008014000BFFEE7F2
:1007E00010B5272141F61F4001F03AF910BD000075
:1007F00010B500BF234801682348006800F09CFC46
:1008000004462148006801F048FE2049096801EBD0
:100810008102C2EB4121884208DA1A4800680028A8
:1008200001DC1B4C29E04FF4E15426E01948006834
:10083000844202DD1748046807E016480068404219
:10084000844202DA1348006844420F4909680D4A9D
:100850001268881A01F021FE43F27E3188420CDAD8
:100860000C480068844202DD40F61C4405E009485B
:1008700000684042844200DA074C204600F0C8FE7F
:1008800010BD00001C000020200000202C000020D3
:10089000E0E3FFFF40000020E4F3FFFF70477047F4
:1008A00000B587B00121084600F09EFC012104201C
:1008B00000F0AAFC0320ADF8000004208DF803002E
:1008C00069461E4800F03CF804A801F015FC002021
:1008D000ADF810004FF6FF70ADF814000020ADF831
:1008E0001600ADF8120004A94FF0804001F0B2FBF1
:1008F00000231A4603214FF0804001F07CF901A843
:1009000001F002FA0A20ADF80C0001A9400701F03D
:10091000A5F90121880701F04DF901221146900740
:1009200001F0FBF900214FF0804001F065FB01214F
:10093000880701F045F907B000BD0000000801403C
:100940002DE9F04102460025002600200023002466
:10095000002791F803C00CF00F0591F803C00CF0CC
:10096000100CBCF1000F03D091F802C04CEA050551
:1009700091F800C0BCF1000F31D0146800202BE0CA
:100980004FF0010C0CFA00F3B1F800C00CEA0306BA
:100990009E4220D183004FF00F0C0CFA03F7BC43AA
:1009A00005FA03FC4CEA040491F803C0BCF1280FDB
:1009B00006D14FF0010C0CFA00FCC2F814C00AE09A
:1009C00091F803C0BCF1480F05D14FF0010C0CFAAF
:1009D00000FCC2F810C0401C0828D1D31460B1F844
:1009E00000C0BCF1FF0F34DD546800202EE000F1A0
:1009F000080C4FF0010808FA0CF3B1F800C00CEA3B
:100A000003069E4221D183004FF00F0C0CFA03F72E
:100A1000BC4305FA03FC4CEA040491F803C0BCF1A2
:100A2000280F05D100F1080C08FA0CF8C2F8148060
:100A300091F803C0BCF1480F07D100F1080C4FF04A
:100A4000010808FA0CF8C2F81080401C0828CED320
:100A50005460BDE8F0810000F0B50A460023002490
:100A60000021002500F00046B6F1004F02D11D4ED6
:100A7000F16901E01B4E7168C0F3034583B200F4D5
:100A80004016B6F5401F08D121F07061154E76680A
:100A900026F07066134F7E6012E000F48016B6F503
:100AA000801F06D1032606FA05F4A14341F07061C8
:100AB00006E0460D360103FA06F6B14341F07061D7
:100AC00022B1460D360103FA06F6314300F0004626
:100AD000B6F1004F02D1034EF16101E0014E7160A9
:100AE000F0BD0000000001404161704701617047A6
:100AF000F0B585B00026022000F046F80446032039
:100B000000F042F80746042000F03EF80546661B58
:100B1000224610A16846FFF769FB6846FFF75AFBBB
:100B20003A460FA16846FFF761FB6846FFF752FBA4
:100B30002A460EA16846FFF759FB6846FFF74AFBB5
:100B400032460DA16846FFF751FB6846FFF742FBAE
:100B500005B0F0BD52696768743D25640D0A000058
:100B60004D69643D25640D0A000000004C65667403
:100B70003D25640D0A0000004476616C75653D25D5
:100B8000640D0A0D0A00000010B504460723012277
:100B900021460948FFF744FD01210748FFF7A1FD61
:100BA00000BF02210448FFF7FFFC0028F9D00248EB
:100BB000FFF7F6FC10BD00000024014000BFFEE777
:100BC00008B50121102000F01FFB4FF40050ADF8D4
:100BD000000010208DF8030003208DF80200694604
:100BE0000448FFF7ADFE4FF400510248FFF77EFFC7
:100BF00008BD00000010014010B500200749086042
:100C00004FF4FA7001F0ECFB01200549C1F8B40182
:100C10004FF4FA7001F0E4FB10BD0000B401224271
:100C20000000224200BFFEE708B50121082000F0C5
:100C3000EBFA0121084600F0E7FA4FF47070ADF8C6
:100C4000000018208DF8030003208DF8020069468B
:100C50000148FFF775FE08BD000C014010B50021EA
:100C600041F61F4000F02CFFFFF7DEFF002108488F
:100C700001F0B9F90021064801F0B7F90021044854
:100C800001F0B5F90021024801F0B3F910BD0000F0
:100C9000000800407047000000B587B001210C201B
:100CA00000F0B2FA4FF48070ADF8180010208DF803
:100CB0001B0003208DF81A0006A93148FFF740FEFB
:100CC0004FF480712E48FFF70FFF4FF48050ADF8BE
:100CD000180010208DF81B0003208DF81A0006A9BB
:100CE0002848FFF72DFE4FF480512648FFF7FCFE01
:100CF0004FF40040ADF8180028208DF81B0006A91D
:100D00001F48FFF71DFE4FF400411D48FFF7ECFEA2
:100D10004FF480511B48FFF7E7FE00F027FB00214E
:100D2000194800F097FB0020ADF804004FF48270E2
:100D3000ADF806000020ADF80800ADF80A00ADF8E7
:100D40000C004FF40070ADF80E001820ADF8100044
:100D50000020ADF812000720ADF8140001A90A48E0
:100D600000F092FB0121084800F074FB00200749C5
:100D7000086001200649C1F8B00107B000BD0000BD
:100D800000080140000C014000380040A001214251
:100D90000080214210B50020144908600522144942
:100DA000302000F02BF8052212492A2000F026F806
:100DB0000121212000F040F80121222000F03CF820
:100DC0001A21242000F038F82821252000F034F8DA
:100DD0000F21262000F030F80E21202000F02CF802
:100DE00001200549C1F8A00110BD0000A001214269
:100DF0008E31000893310008000021422DE9F041B6
:100E000007460C46154600200A490860384600F09F
:100E1000F7FA8046002605E014F8010B00F0F0FA1E
:100E2000701CC6B2AE42F7DB0120024908604046A2
:100E3000BDE8F081B081214270B505460C46002026
:100E400007490860284600F0DBFA0646204600F015
:100E5000D7FA01200349C1F8B001304670BD000047
:100E6000B08121420080214270B5002100230F2271
:100E7000C47804B3154C246804F4E064C4F5E06459
:100E8000210AC1F10403CA40447804FA03F18478CA
:100E90001440214309010E4C0678A155047804F052
:100EA0001F050124AC4005786D11AD0005F1E0256A
:100EB000C5F8004109E0047804F01F050124AC40A6
:100EC000044D0678761145F8264070BD0CED00E023
:100ED00000E400E080E100E002490143024A1160C1
:100EE000704700000000FA050CED00E070B5064602
:100EF000002415E004F1B001C8B200F0FBF80120B5
:100F000000F0F8F8102000F0F5F8002504E0304675
:100F100000F000F9681CC5B2802DF8DB601CC4B27B
:100F2000082CE7DB70BD0000012006490860064977
:100F3000C1F8900100200349091D08600249C1F869
:100F40008C0170478C81214200802142002006499B
:100F500008600649C1F8900101200349086003496F
:100F6000C1F89001704700008C812142008021422D
:100F700010B54FF4FA7001F033FA00F087F8AE20A4
:100F800000F0B8F8002000F0B5F8102000F0B2F83A
:100F9000402000F0AFF8812000F0ACF8CF2000F046
:100FA000A9F8A12000F0A6F8C82000F0A3F8A62018
:100FB00000F0A0F8A82000F09DF83F2000F09AF87B
:100FC000D32000F097F8002000F094F8D52000F02E
:100FD00091F8802000F08EF8D92000F08BF8F120F5
:100FE00000F088F8DA2000F085F8122000F082F88E
:100FF000DB2000F07FF8402000F07CF8202000F09B
:1010000079F8022000F076F88D2000F073F81420B3
:1010100000F070F8A42000F06DF8A62000F06AF847
:10102000AF2000F067F80020FFF760FF00210846BE
:1010300000F04CF810BD00002DE9F04180460E464E
:10104000174600247D013146404600F03FF800BFBE
:1010500006E00D49485D00F05DF86D1C601CC4B2EF
:10106000102CF6DB701CC1B2404600F02FF80024B3
:1010700006E00549485D00F04DF86D1C601CC4B2E7
:10108000102CF6DBBDE8F081F628000808B5012138
:10109000092000F0B9F801210A48FFF7DDFC18200B
:1010A000ADF8000010208DF8030003208DF8020039
:1010B00069460548FFF744FC18210348FFF716FD71
:1010C00008BD000000023000000C014030B50446AD
:1010D0000D4605F1B001C8B200F00CF8102141EA4C
:1010E000141000F007F804F00F0141F0010000F0C7
:1010F00001F830BD10B50446FFF716FF782001F067
:1011000019F9002001F016F9204601F013F9FFF754
:101110001DFF10BD10B50446FFF706FF782001F053
:1011200009F9402001F006F9204601F003F9FFF724
:101130000DFF10BD704700002DE9F84F04460D4625
:101140001D4E0027DFF87480601B01F07BFA1C49FC
:101150000860084601681B48006801F0F5F9194964
:101160000860194801681648006801F04FFB834683
:10117000414601F07FFA814612480168384601F085
:1011800079FA83460E480168304601F073FA5946F1
:10119000009001F0D9F98246494601F0D5F90B4992
:1011A000086007480068084908600848006801F0BE
:1011B0002DFABDE8F88F00009A9999BF00008CC203
:1011C0004800002050000020540000204C00002067
:1011D00001460020034A506820F440400843506014
:1011E000704700000010024029B1064AD26902434C
:1011F000044BDA6104E0034AD2698243014BDA61AD
:10120000704700000010024029B1064A926902436B
:10121000044B9A6104E0034A92698243014B9A614C
:10122000704700000010024029B1064AD26802430C
:10123000044BDA6004E0034AD2688243014BDA606F
:10124000704700000010024030B500210022002449
:1012500000232D4D6D6805F00C0121B1042905D046
:10126000082923D105E0294D056022E0274D0560BE
:101270001FE0254D6D6805F47012234D6D6805F46F
:101280008034022505EB92421CB9214D554305607F
:101290000BE01D4D6D6805F400351DB11C4D554327
:1012A000056002E0194D5543056002E0174D0560E9
:1012B00000BF00BF144D6D6805F0F0010909154D20
:1012C0006B5C0568DD4045600F4D6D6805F4E061BD
:1012D000090A104D6B5C4568DD4085600A4D6D68FC
:1012E00005F46051C90A0B4D6B5C4568DD40C56073
:1012F000054D6D6805F44041890B074D6B5CC56871
:10130000B5FBF3F5056130BD0010024000127A0014
:1013100000093D00720000208200002001460229E1
:1013200004D003290BD0042917D10FE04FF08042DD
:10133000928C10B200224FF080439A840FE0094A49
:10134000128810B20022074B1A8008E0064A128861
:1013500010B20022044B1A8001E0002000BF00BF41
:1013600070470000240400402408004000B587B006
:1013700001210820FFF748FF01218803FFF734FF10
:101380004FF46040ADF8180018208DF81B000320C2
:101390008DF81A0006A91848FFF7D2FA4FF46041F9
:1013A0001548FFF7A3FB0020ADF804004FF482704E
:1013B000ADF806000020ADF808000220ADF80A00E4
:1013C0000120ADF80C004002ADF80E003820ADF859
:1013D00010000020ADF812000720ADF8140001A99C
:1013E000064800F051F80121044800F033F8FF20CE
:1013F00000F006F807B000BD000C014000380040C6
:1014000070B50546002405E0601CC4B2C82C01DD9F
:10141000002070BD02210E4800F028F80028F3D00B
:1014200029460B4800F02EF8002405E0601CC4B2E9
:10143000C82C01DD0020ECE70121054800F016F87A
:101440000028F3D0024800F01AF8C0B2E1E700002B
:101450000038004021B1028842F04002028004E0DE
:1014600002884FF6BF731A40028070470246002080
:1014700013890B400BB1012000E0002070470146AA
:10148000888970478181704710B50022028802F474
:1014900041520B884C8823438C882343CC882343B8
:1014A0000C8923434C8923438C892343CC892343D0
:1014B0001A430280838B4FF2FF74234083830B8A8D
:1014C000038210BD7047000008B501210846FFF7F0
:1014D0009BFE4FF40060ADF8000018208DF803006B
:1014E00003208DF8020069460648FFF729FA01211A
:1014F0000420FFF789FE4FF400610248FFF7F6FA77
:1015000008BD00000008014010B5C72141F61F408A
:1015100000F036FAFFF7D8FFA521024800F069FD78
:1015200010BD0000002C014010B500F001F810BD06
:101530000CB50020019000903348006840F48030E2
:101540003149086000BF3048006800F40030009066
:101550000198401C0190009818B90198B0F5A06F4F
:10156000F1D12948006800F4003010B1012000904A
:1015700001E0002000900098012843D12348006832
:1015800040F01000214908600846006820F0030080
:1015900008600846006840F0020008601A48406889
:1015A000194948600846406848600846406840F469
:1015B000806048600846406820F47C104860084617
:1015C000406840F4E81048600846006840F08070C9
:1015D000086000BF0C48006800F000700028F9D0D7
:1015E0000948406820F00300074948600846406801
:1015F00040F00200486000BF0348406800F00C0063
:101600000828F9D10CBD0000001002400020024063
:1016100000B50346184600F005F8184600F01AF821
:1016200000BD0000002808DA4FF4E151084A11809B
:1016300000F5E151121D118008E04FF4E151044A18
:10164000121D1180C0F5E151121F1180704700007A
:1016500034080040002808DA4FF4E151084A1180AC
:1016600000F5E151121F118008E04FF4E151044AE6
:10167000121F1180C0F5E151121D1180704700004A
:10168000400800402DE9F04105460F464FF00008A4
:101690004FF00408002409E005EB0410C6B222460E
:1016A00039463046FFF7C8FC601CC4B24445F3DB42
:1016B000BDE8F081042808D14FF0E021096941F02C
:1016C00004014FF0E022116107E04FF0E0210969C9
:1016D00021F004014FF0E0221161704770470000D3
:1016E00010B51348006840F0010011490860084631
:1016F0004068104908400E494860084600680E4995
:1017000008400B4908600846006820F48020086003
:101710000846406820F4FE0048604FF41F008860CF
:10172000FFF702FF4FF000600449086010BD0000A1
:10173000001002400000FFF8FFFFF6FE08ED00E099
:10174000F0B50C46154600220021068C4FF6FE77B8
:101750003E400684028B018C4FF60C7632407E1C94
:1017600006EA03162E433243104EB0420ED0104EFE
:10177000B0420BD0B0F1804F08D00E4EB04205D031
:101780000D4EB04202D00D4EB04206D14FF6FD765E
:10179000314044F00106314305E04FF6F576314023
:1017A00044F00106314302830184F0BD002C014066
:1017B000003401400004004000080040000C0040DC
:1017C000F0B50C461546002200210026078C4FF686
:1017D000EF7C07EA0C070784028B018C4FF6FF773A
:1017E00007EA041640F6FF473A404FF6FF7707EA4C
:1017F00003373A434FF6FF7707EA05273A43114F7D
:10180000B8420ED0104FB8420BD0B0F1804F08D084
:101810000E4FB84205D00E4FB84202D00D4FB8421D
:1018200006D14FF6DF77394046F01007394305E01F
:101830004FF65F77394044F0100739430283018443
:10184000F0BD0000002C01400034014000040040C5
:1018500000080040000C0040F0B50C461546002280
:1018600000210026078C4FF6FF6C07EA0C0707845F
:10187000828B018C4FF6FF7707EA04264FF60C7730
:101880003A404FF6FF7707EA03172F433A43114FC9
:10189000B8420ED0104FB8420BD0B0F1804F08D0F4
:1018A0000E4FB84205D00E4FB84202D00D4FB8428D
:1018B00006D14FF6FF57394046F48077394305E0AB
:1018C0004FF2FF57394044F48077394382830184D3
:1018D000F0BD0000002C0140003401400004004035
:1018E00000080040000C0040F0B50C4615460022F0
:1018F00000210026078C4EF6FF7C07EA0C070784C0
:10190000828B018C4FF6FF7707EA043640F6FF47DB
:101910003A404FF6FF7707EA05273A434FF6FF773D
:1019200007EA03373A43114FB8420ED0104FB8427E
:101930000BD0B0F1804F08D00E4FB84205D00E4FFB
:10194000B84202D00D4FB84206D14DF6FF7739406C
:1019500046F48057394305E047F6FF57394044F4D1
:101960008057394382830184F0BD0000002C014080
:10197000003401400004004000080040000C00401A
:1019800030B587B005460C460121C802FFF73CFC84
:1019900001210420FFF738FCADF81450ADF81040D9
:1019A0000020ADF81600ADF8120004A9124800F0AE
:1019B00051FB7020ADF800000120ADF802000020BE
:1019C000ADF806000220ADF8080069460A4800F0AC
:1019D000BDFA0821084800F0F5F90121064800F099
:1019E000DDF80121044800F0F7F80121024800F079
:1019F000E7F807B030BD0000002C01404FF08040F8
:101A0000008A4FF08040008A20F001004FF08041B2
:101A10000882704710B501210D4800F00DF9B0B1F2
:101A200001210B4800F0C9F80220FFF777FC0949B3
:101A30000860094800680968401A074908600748B3
:101A40000068002803DDFEF729FFFEF7D1FE10BD78
:101A50000004004024000020200000201C00002082
:101A60007FB505460C4601210220FFF7BDFBADF80E
:101A70000850ADF804400020ADF80A00ADF80600AB
:101A800001A90E4800F0E6FA012211460B4800F0C9
:101A900044F91D208DF8000000208DF8010003207E
:101AA0008DF8020001208DF803006846FFF7DCF98D
:101AB0000121024800F084F87FBD000000040040CE
:101AC00030B587B004460D4601210420FFF78CFB9A
:101AD000ADF81440ADF810500020ADF81600ADF888
:101AE00012008DF8180004A92B4800F0B3FA012168
:101AF000294800F053F86020ADF800000120ADF84F
:101B000002000020ADF80400ADF80C00ADF80E00A6
:101B1000ADF80600ADF80800ADF80A0069461E48A9
:101B200000F004F908211C4800F0A8F969461A4899
:101B300000F052F90821184800F0FEF969461648ED
:101B400000F0AAF90821144800F0F6F96946124895
:101B500000F0FCF90821104800F036FA01210E4887
:101B600000F02EF801210C4800F036F821460A4812
:101B700000F037FA0021084800F035FA0021064845
:101B800000F033FA0021044800F031FA0021024845
:101B900000F02FFA07B030BD0008004021B10288E4
:101BA00042F08002028004E002884FF67F731A4000
:101BB00002807047CA4302827047CA43028270475C
:101BC00021B1028842F00102028004E002884FF64F
:101BD000FE731A400280704731B1B0F8442042F4DD
:101BE0000042A0F8442005E0B0F84420C2F30E0201
:101BF000A0F844207047F0B50C4615461E4600215B
:101C0000002200230189028B038C4FF6F8773940BC
:101C100021434FF6FC473A4040F201173A434FF652
:101C2000DD773B404FF6FF7707EA06172F433B432C
:101C3000018102830384F0BD30B5024600200023F9
:101C40000024158A05EA0103958905EA010413B108
:101C50000CB1012000E0002030BD000070B5054649
:101C60000C46244885420ED0234885420BD0B5F15E
:101C7000804F08D02148854205D02148854202D0B6
:101C80002048854200D100E000BF208850B9238958
:101C9000A28861882846FFF753FDE188284600F0B6
:101CA000ADF925E0208804280AD12389A28861881B
:101CB0002846FFF785FDE188284600F0A8F917E0DF
:101CC000208808280AD12389A28861882846FFF73E
:101CD000C3FDE188284600F0A7F909E02389A2881E
:101CE00061882846FFF700FEE188284600F0A5F944
:101CF00070BD0000002C0140003401400004004091
:101D000000080040000C00400021018041800121BA
:101D100081800021C180018170471AB183890B4302
:101D2000838102E083898B438381704770B50024EF
:101D300000220023058C4FF6FE7635400584028C88
:101D40008388048B4FF68F752C40B51E2C400D8870
:101D50002C43751E2A400D892A434D882A43144D71
:101D6000A8420BD0134DA84208D0134DA84205D06D
:101D7000124DA84202D0124DA84213D14FF6F7756A
:101D80002A404D892A434FF6FB752A408D882A4305
:101D90004FF6FF652B404FF6FF552B408D892B43A7
:101DA000CD892B4383800483CD888586028470BDD2
:101DB000002C01400034014000400140004401403B
:101DC000004801400A460021018B4FF6F773194085
:101DD000114301837047000070B5002400220023E6
:101DE000058C4FF6EF7635400584028C8388048B92
:101DF00048F6FF752C404FF6FF452C400D884FF6F6
:101E0000FF7606EA05252C434FF6DF752A400D893B
:101E100006EA05152A434D8806EA05152A43154D9D
:101E2000A84202D0144DA8421DD14FF67F752A401A
:101E30004D894FF6FF7606EA05152A434FF6BF7522
:101E40002A408D8806EA05152A434FF6FF352B40B8
:101E50004FF2FF752B408D8906EA85052B43CD890E
:101E600006EA85052B4383800483CD880587028499
:101E700070BD0000002C0140003401400A460021E2
:101E8000018B4FF2FF7319404FF6FF7303EA0223F1
:101E9000194301837047000070B50024002200231D
:101EA000058C4FF6FF6635400584028C8388848B51
:101EB0004FF68F752C404FF6FC752C400D882C4347
:101EC0004FF6FF552A400D894FF6FF7606EA0525A5
:101ED0002A434D8806EA05252A43154DA84202D01B
:101EE000144DA8421DD14FF2FF752A404D894FF67F
:101EF000FF7606EA05252A434FF6FF352A408D88EE
:101F000006EA05252A434EF6FF752B404DF6FF7570
:101F10002B408D8906EA05152B43CD8906EA051568
:101F20002B4383808483CD888587028470BD000025
:101F3000002C0140003401400A460021818B4FF6FD
:101F4000F7731940114381837047000070B5002278
:101F500000230024058C4EF6FF7635400584038C63
:101F60008488828B48F6FF752A404FF6FF452A4049
:101F70000D884FF6FF7606EA05252A434DF6FF75D4
:101F80002B400D8906EA05352B434D8806EA0535B9
:101F90002B430B4DA84202D00A4DA84208D14BF664
:101FA000FF752C408D894FF6FF7606EA85152C4388
:101FB00084808283CD88A0F84050038470BD0000E7
:101FC000002C0140003401400A460021818B4FF271
:101FD000FF7319404FF6FF7303EA0223194381830D
:101FE0007047818570478186704701877047818778
:101FF0007047A0F84010704781847047028B4FF6FD
:10200000F3731A400283028B0A4302837047028BE8
:102010004FF2FF331A400283028B4FF6FF7303EA3D
:1020200001231A4302837047828B4FF6F3731A40E1
:102030008283828B0A4382837047828B4FF2FF3305
:102040001A408283828B4FF6FF7303EA01231A43FF
:1020500082837047002202881D4B98420ED01D4B90
:1020600098420BD0B0F1804F08D01B4B984205D05E
:102070001A4B984202D01A4B984204D14FF68F73F4
:102080001A404B881A43174B984207D0164B984278
:1020900004D04FF6FF431A40CB881A4302808B8846
:1020A00083850B8803850A4B98420BD0094B9842D5
:1020B00008D00E4B984205D00D4B984202D00D4BE4
:1020C000984201D10B7A0386012383827047000076
:1020D000002C014000340140000400400008004092
:1020E000000C00400010004000140040004001407F
:1020F00000440140004801404FF6FF7181800021FB
:102100000180C180418001727047000010B540F22B
:1021100025511D4800F04AF810B31B4800F002F9A1
:10212000C4B21A48008800F40040C8B917480088B3
:1021300000F4804060B10A2C03D0002013490880CD
:1021400020E01248008840F400401049088019E05F
:102150000D2C06D10D48008840F480400B490880C2
:1021600010E00A480088C0F30D0009490C540748E4
:102170000088401C0549088008460088C72801DD02
:102180000020088010BD00000038014070000020D1
:102190008800002021B1828942F40052828104E04B
:1021A00082894DF6FF731A408281704770B50246EE
:1021B000002400230025002040F66A16B14200D119
:1021C00000BFC1F3421501F01F03012606FA03F315
:1021D000012D02D19689334006E0022D02D1168AE4
:1021E000334001E0968A33400C12012606FA04F4CB
:1021F0001688344013B10CB1012000E0002070BDFE
:10220000F0B50346002400260025002040F66A179A
:10221000B94200D100BF1846C1F3421401F01F06B5
:10222000012707FA06F5012C01D10C3004E0022C3D
:1022300001D1103000E014301AB107682F43076055
:1022400002E00768AF430760F0BD00002DE9F047EA
:1022500086B005460E460024A24600BFA1460027D0
:10226000B08900B100BF2F462C8A4CF6FF700440A5
:10227000F08804432C82AC894EF6F3100440B088F9
:1022800031890843718908430443AC81AC8A4FF615
:10229000FF400440B0890443AC8201A8FEF7D4FF9C
:1022A0001F48874202D1DDF810A001E0DDF80CA044
:1022B000A88900F4004040B10AEBCA0000EB0A1004
:1022C00031684900B0FBF1F807E00AEBCA0000EB07
:1022D0000A1031688900B0FBF1F86420B8FBF0F017
:1022E00004012009642101FB1089A88900F4004041
:1022F00040B1322000EBC900B0FBF1F000F0070064
:10230000044308E0322000EB09106421B0FBF1F037
:1023100000F00F0004432C8106B0BDE8F0870000F8
:102320000038014001468888C0F30800704700BFAC
:10233000FEE70000002115E000F080021AB1012242
:102340000F4B1A6002E000220D4B1A6001220C4B69
:102350001B1F1A6000220B4BC3F88C214206100E83
:102360004A1CD1B20829E7DB0122054B1A60054B54
:10237000C3F88C210022024B1B1F1A60704700001B
:10238000908121420080214230380A2801D2012068
:10239000704700207047014600BF704710B56FF0CE
:1023A0000400FFF787F90A4800680A49B0FBF1F01A
:1023B000094908700846007800EB4001C1EBC010E5
:1023C0004FF6FF7101EAC0000449088010BD00000B
:1023D0000000002000127A00680000206A0000203F
:1023E0000146114A12884A434FF0E0235A61002205
:1023F0009A611A46126942F001021A6100BF4FF059
:10240000E022106900F001021AB100F48032002AC3
:10241000F5D04FF0E022126922F001024FF0E023E4
:102420001A6100229A6170476A00002000BF054AC5
:10243000128802F04002002AF9D0C2B2014B1B1DE3
:102440001A8070470038014000BFFFF7A7FF4FF424
:10245000A060FEF741FD4FF4E13000F025F8FEF7F3
:1024600087FDFEF71DFAFEF7ABFBFEF79DF9FEF7C1
:10247000F5FBFFF749F8FEF745F9FEF7B1F9FEF76E
:102480000BFCFEF787FC00211E20FFF7FBF803E0A2
:10249000FEF7B2FBFEF72CFBFAE70146002901DA52
:1024A000484200E00846704710B586B00446012156
:1024B00044F20400FEF7A8FE4FF40070ADF81400DB
:1024C00003208DF8160018208DF8170005A91C4868
:1024D000FEF736FA4FF48060ADF8140004208DF852
:1024E000170005A91648FEF72BFA25208DF80000E5
:1024F00003208DF801008DF8020001208DF8030003
:102500006846FEF7B1FC01940020ADF80800ADF874
:102510000A00ADF80C00ADF810000C20ADF80E006C
:1025200001A90848FFF792FE012240F22551054813
:10253000FFF766FE01210348FFF72CFE06B010BD31
:10254000000801400038014090EA010F48BF81F0C7
:10255000004100F16281421A3CBF801A89184FEA9B
:10256000D0524FF07F4C1CEA410FA2EBD15318BF61
:102570009CEA026F00F03B804FF0004C4CEA0020D8
:102580004CEA012121FA03FC10EB0C0C1ED202F1E3
:10259000FF325FEA1C2040EBC25038BF70471CF08E
:1025A0007F0F4FEA400C18BFBCF17F4F38BF704718
:1025B000C3F12003994008BF20F00100BCF17F4F18
:1025C00038BF7047A0F1C04000F01BB94FEA3C0093
:1025D000000A40EBC25028BF1CF0FF0F4FEA400C2E
:1025E000E6D018BFBCF17F4F38BF7047EAE79CEADE
:1025F000026F05D010EA5C0F08BF00F00040704782
:1026000010B500F0B8F800BF64FBBE3E41000B0EF1
:10261000D3F19E0208D950F400034FEA032323FAB2
:1026200002F048BF4042704710B500F0A4F800BF68
:1026300049922480002070476FF0004282EA200017
:102640007047000010F0004148BF4042B0FA80F3EC
:1026500010FA03F2C3F19D030BD051EAC35101EB11
:102660001220530638BF704700F1010008BF20F068
:10267000010070474FF47F0C1CEAD0121EBF1CEA09
:10268000D11392EA0C0F93EA0C0F00F0478090EA06
:10269000010F48BF42F480724FF0004C4CEA00201A
:1026A0004CEA012102EB0302A0FB0113A2F5000298
:1026B000002918BF43F001035B0028BF4FEA330332
:1026C00042EB22425FEA132C4CEBC2502EBFBCEB14
:1026D000436FB2F57C0F70474FEA036CBCF1004FBB
:1026E00008BF20F00100B2F57C0F38BF70470BD552
:1026F00082F0FF0212F5803FC8BF704700F1C04072
:10270000D8BF00F00040704700F5000C5FEA4C0CA9
:1027100048BF7047B0F1C04000F073B890EA010FB5
:102720000CEAD11348BF42F48072624538BF63455A
:1027300004D280EA010000F00040704710B500F0BC
:102740001AF800BF8900013E00F007B800F009B890
:102750005FEA410C5FEA1C6C08D080EA010000F0DF
:1027600050B85FEA400C5FEA1C6CF6D14FF00040B5
:10277000A0F5800070470EF1020E2EF0030E5EF8F9
:10278000044B244204D44FEA4102B2F17F4F11D8E6
:102790004FEA4003B3F17F4F0CD80ED14FEAD07C03
:1027A000B2F17F4F0CEB4C0C0CF1020C08BF4CEB60
:1027B000D17C04E04FF0080C01E04FEAD17C0CEB37
:1027C0004C0324FA03F404F00704B4F1040C06D219
:1027D0000EEB840CBDE810404CF0010C6047DFE8C4
:1027E0000CF0070802024FF00040A0F5800010BD79
:1027F0000846420018BFD2F1807288BF00F0004046
:1028000010BDFF2141EAD050C005704790EA010F8A
:1028100048BF81F000413FF59EAE421A04D882F0D5
:102820000042A0EB020011444FEAD0524FF07F4C1F
:102830001CEA410FA2EBD15318BF9CEA026F4AD0A9
:102840004FF0004C4CEA00204CEA012121FA03FC35
:10285000B0EB0C0C0FD412F0FE0F36D05FEA4C0038
:102860001DD5001240EBC25038BF70471CF03F0F1F
:1028700018BF70470BE0A2F101025FEA1C2040EB99
:10288000C25038BF70471CF07F0F18BF7047C3F1AC
:102890002003994014BF401E20F0010070478008BB
:1028A0004FEA122308BF7047B0FA80FCA2EB0C027B
:1028B000CCF1280C60FA0CF093EA122F04BF00EB65
:1028C000C25070474FEAC3707047130A5FEADC10CA
:1028D00008BF7047F6E79CEA026F04D010EA5C0F6D
:1028E00008BF0020704710B5FFF745FF40DFF63EF8
:1028F00081F0004070470000FE4AAAFE9AEA83AACF
:102900009AFE9A2A420080609F804F4A2A1A6FBA24
:10291000AABAEF80C00002020202C2B28E82828294
:1029200082828202020008040201FF4040404040CF
:102930004040FF0000002424A4FEA3220022CC007B
:1029400000FF00000000080601FF00010404040469
:1029500004FF02020200101010FF109008888888FF
:10296000FF88888808000444827F01808040432CCF
:102970001028468180000000000000000000002FA9
:10298000000000000700070000147F147F140024DB
:102990002A7F2A1200626408132300364955225008
:1029A00000000503000000001C224100000041223D
:1029B0001C000014083E08140008083E0808000027
:1029C00000A060000008080808080000606000001F
:1029D000002010080402003E5149453E0000427F9D
:1029E0004000004261514946002141454B310018E9
:1029F00014127F10002745454539003C4A494930AB
:102A00000001710905030036494949360006494964
:102A1000291E00003636000000005636000000086F
:102A2000142241000014141414140000412214084C
:102A300000020151090600324959513E007C121131
:102A4000127C007F49494936003E41414122007FC6
:102A50004141221C007F49494941007F0909090180
:102A6000003E4149497A007F0808087F0000417F05
:102A70004100002040413F01007F08142241007FB7
:102A800040404040007F020C027F007F0408107F1E
:102A9000003E4141413E007F09090906003E415187
:102AA000215E007F09192946004649494931000144
:102AB000017F0101003F4040403F001F2040201F98
:102AC000003F4038403F006314081463000708705B
:102AD000080700615149454300007F41410000550E
:102AE0002A552A55000041417F00000402010204DA
:102AF00000404040404000000102040000205454C7
:102B00005478007F48444438003844444420003816
:102B10004444487F00385454541800087E09010288
:102B20000018A4A4A47C007F080404780000447D5D
:102B30004000004080847D00007F10284400000099
:102B4000417F4000007C04180478007C080404786D
:102B500000384444443800FC242424180018242459
:102B600018FC007C08040408004854545420000455
:102B70003F444020003C4040207C001C2040201C62
:102B8000003C4030403C004428102844001CA0A0D9
:102B9000A07C004464544C44141414141414000015
:102BA0000000000000000000000000000000000025
:102BB00000F80000000000000033300000000010AA
:102BC0000C06100C0600000000000000000040C0D1
:102BD0007840C0784000043F04043F0404000070C3
:102BE00088FC08300000001820FF211E0000F008BB
:102BF000F000E018000000211C031E211E0000F060
:102C00000888700000001E212324192721101016A7
:102C10000E000000000000000000000000000000A6
:102C200000E0180402000000000718204000000225
:102C30000418E00000000040201807000000404099
:102C400080F0804040000202010F010202000000FB
:102C500000F0000000000101011F0101010000005F
:102C600000000000000080B07000000000000000C4
:102C7000000000000000000101010101010100004D
:102C800000000000000000303000000000000000E4
:102C9000000080601804006018060100000000E0D9
:102CA00010080810E000000F102020100F00001086
:102CB00010F8000000000020203F202000000070DD
:102CC00008080888700000302824222130000030D5
:102CD0000888884830000018202020110E000000CD
:102CE000C02010F8000000070424243F240000F84E
:102CF0000888880808000019212020110E0000E033
:102D0000108888180000000F112020110E000038D4
:102D10000808C83808000000003F000000000070EC
:102D2000880808887000001C222121221C0000E075
:102D300010080810E0000000312222110F000000EE
:102D400000C0C000000000000030300000000000A3
:102D50000080000000000000806000000000000013
:102D600080402010080000010204081020004040AC
:102D700040404040400004040404040404000008EF
:102D800010204080000000201008040201000070A4
:102D900048080808F0000000003036010000C0308C
:102DA000C828E810E0000718272423140B000000AF
:102DB000C038E0000000203C23020227382008F839
:102DC000888888700000203F202020110E00C0302D
:102DD000080808083800071820202010080008F804
:102DE00008080810E000203F202020100F0008F8FD
:102DF0008888E8081000203F20202320180008F8C9
:102E00008888E8081000203F200003000000C03040
:102E100008080838000007182020221E020008F8C1
:102E200008000008F808203F210101213F20000888
:102E300008F8080800000020203F202000000000C3
:102E40000808F8080800C08080807F00000008F8AB
:102E500088C028180800203F20012638200008F8E4
:102E6000080000000000203F20202020300008F84B
:102E7000F800F8F80800203F003F003F200008F865
:102E800030C00008F808203F200007183F00E0107D
:102E900008080810E0000F10202020100F0008F88C
:102EA00008080808F000203F210101010000E0109F
:102EB00008080810E0000F18242438504F0008F8C4
:102EC000888888887000203F2000030C3020007024
:102ED0008808080838000038202121221C00180822
:102EE00008F8080818000000203F2000000008F83B
:102EF00008000008F808001F202020201F00087884
:102F0000880000C83808000007380E010000F808E3
:102F100000F80008F800033C0700073C030008180D
:102F200068808068180820302C03032C3020083873
:102F3000C800C83808000000203F2000000010082A
:102F40000808C83808002038262120201800000072
:102F500000FE020202000000007F40404000000C22
:102F600030C000000000000000010638C000000270
:102F70000202FE000000004040407F000000000010
:102F80000402020204000000000000000000000033
:102F9000000000000000808080808080808000022F
:102FA000020400000000000000000000000000001B
:102FB0008080808000000019242222223F2008F80F
:102FC000008080000000003F112020110E00000052
:102FD000008080800000000E1120202011000000E1
:102FE00000808088F800000E112020103F20000093
:102FF000808080800000001F222222221300008097
:1030000080F0888888180020203F202000000000E1
:10301000808080808000006B94949493600008F816
:10302000008080800000203F210000203F200080A1
:103030009898000000000020203F202000000000A1
:1030400000809898000000C08080807F000008F811
:10305000000080808000203F24022D3020000008E6
:1030600008F8000000000020203F202000008080A1
:10307000808080808000203F20003F20003F8080B3
:10308000008080800000203F210000203F200000C1
:10309000808080800000001F202020201F00808072
:1030A00000808000000080FFA12020110E000000A1
:1030B000008080808000000E112020A0FF80808092
:1030C00080008080800020203F212000010000003F
:1030D0008080808080000033242424241900008014
:1030E00080E0808000000000001F20200000808021
:1030F000000000808000001F202020103F208080E2
:1031000080000080808000010E3008060100808071
:103110000080008080800F300C030C300F00008096
:103120008000808080000020312E0E3120008080C1
:1031300080000080808080818E70180601000080F1
:103140008080808080000021302C2221300000000F
:103150000000807C020200000000003F40400000B0
:103160000000FF00000000000000FF00000000025F
:10317000027C800000000040403F0000000000068C
:1031800001010202040400000000000000003443BA
:103190001010013443101001B83100080000002065
:1031A0008800000028010008403200088800002044
:1031B000280700004401000800A24A0400000000A3
:1031C00000000000010203040607080900000000D7
:1031D0000000000006630000000000000000000086
:1031E00000000000000000000000000000000000DF
:1031F00000000000000000000000000000000000CF
:1032000000000000000000000000000000000000BE
:1032100000000000000000000000000000000000AE
:10322000000000000000000000000000000001029B
:10323000030401020304060708090204060800004B
:04000005080001915D
:00000001FF
