:020000040800F2
:10000000801F002001010008E90C0008C90A00084F
:10001000E50C000815090008472200080000000050
:10002000000000000000000000000000351600087D
:10003000290900080000000099140008C9170008E9
:100040001B0100081B0100081B0100081B01000820
:100050001B0100081B0100081B0100081B01000810
:100060001B0100081B0100081B0100081B01000800
:100070001B0100081B0100081B0100081B010008F0
:100080001B0100081B0100081B0100081B010008E0
:100090001B0100081B0100081B0100081B010008D0
:1000A0001B0100081B0100081B0100081B010008C0
:1000B000DD180008B51900081B0100081B01000825
:1000C0001B0100081B0100081B0100081B010008A0
:1000D0001B0100081B0100081B010008151F000878
:1000E0001B0100081B0100081B010008DFF80CD0F1
:1000F00000F0A8FB00480047412C0008801F0020AA
:100100000648804706480047FEE7FEE7FEE7FEE7B1
:10011000FEE7FEE7FEE7FEE7FEE7FEE7CD17000895
:10012000ED00000810B5002200E0521C835C8C5CDE
:10013000A34201D1002BF8D1D8B2E1B2401A10BDD0
:10014000F0B480EA0102D40F4200B2EB410F02D2B8
:100150000246084611464A0042D0C30DDDB2C1F343
:10016000C752AD1A202D35DAC1F3160141F4000251
:1001700004B15242C5F1200602FA06F12A411044A8
:10018000B3EBD05F23D0C4B1012DA0EBC35009DC89
:10019000F0BC4FF0004202EAC352DBB200F50000AF
:1001A00000F07CB9400000F1807000EBC350A0F17A
:1001B000807040EAD170490009E0490841EAC07105
:1001C000A0EBC35000F50000400800EBC350F0BCAA
:1001D00000F05BB96142012202EB4101001BF6E72E
:1001E000F0BC704781F00041AAE780F00040A7E72B
:1001F00030B480EA010202F0004530F0004221F004
:10020000004013D090B1C30DD40DC2F31601C0F35A
:100210001600E41A41F4000140F400027D349142DA
:1002200001D3641C00E04900002C02DA30BC00203D
:1002300070474FF400000023914201D3891A034311
:1002400040084FEA4101F7D151B1914202D14FF03C
:10025000004105E002D24FF0010101E06FF0010121
:1002600003EBC450284430BC00F00FB92DE9F04D29
:1002700081EA030404F0004B21F0004514464FF0DE
:10028000000A23F0004150EA050220D054EA01029E
:100290001DD0C5F30A570246C5F31303C1F313007B
:1002A000C1F30A5640F4801543F48013A7EB060807
:1002B000101BD64608F2FD3873EB050002D308F197
:1002C000010801E092185B41B8F1000F03DA002049
:1002D0000146BDE8F08D00204FF4801106468446AB
:1002E0000EE0171B73EB050705D3121B63EB050329
:1002F00006434CEA010C49084FEA300092185B4172
:1003000050EA0107EDD152EA030012D082EA04005C
:1003100083EA0501084305D0101BAB4106D2012238
:10032000002306E000224FF0004302E06FF00102DC
:1003300053101AEB06004CEB085110EB0A0041EB8E
:100340000B01BDE8F04D00F0D7B89623002211460E
:1003500000F0A4B8C1F30A5210B5C1F3130140F282
:10036000FF3341F480119A4201DA002010BD40F2BF
:1003700033439A42A2F2334203DC524200F075F852
:1003800010BD904010BD00F0004230F000400AD097
:10039000C10D01F56071C0F3160042EA0151C208B7
:1003A00040071143704700200146704730B5041ED6
:1003B00071F1000404DB4FF00044404264EB0101A2
:1003C000141E73F1000405DB1C464FF0004352423B
:1003D00063EB04038B4208BF824230BD30B50B464D
:1003E000014600202022012409E021FA02F59D4265
:1003F00005D303FA02F5491B04FA02F52844151E39
:10040000A2F10102F1DC30BD2DE9F05F05460020CC
:1004100092469B4688460646814640241BE0284675
:1004200041464746224600F020F853465A46C01A35
:10043000914110D311461846224600F015FA2D1AA4
:1004400067EB01084F4622460120002100F00CFA1C
:1004500017EB00094E41201EA4F10104DFDC4846E1
:1004600031462A464346BDE8F09F202A04DB203A65
:1004700021FA02F00021704721FA02F3D040C2F1C4
:10048000200291400843194670470029A8BF7047D1
:10049000401C490008BF20F00100704710B4B0FABA
:1004A00080FC00FA0CF050EA010404BF10BC704755
:1004B00049B1CCF1200421FA04F411FA0CF118BF6F
:1004C000012121430843A3EB0C01CB1D4FEA00613E
:1004D0004FEA102042BF002010BC704700EBC35011
:1004E00010440029A4BF10BC7047401C490008BF3D
:1004F00020F0010010BC704710B5141E73F1000409
:1005000008DA401C41F1000192185B411A4301D105
:1005100020F0010010BD2DE9F04D92469B4611B12F
:10052000B1FA81F202E0B0FA80F22032904600F097
:100530009BF904460F4640EA0A0041EA0B01534684
:100540005A46084313D0114653EA010019D0C8F1A6
:1005500040025046FFF789FF05460E465046594671
:10056000424600F081F9084305D0012004E020460E
:100570003946BDE8F08D0020054346EAE0762C437D
:1005800037430A986305E40AA0EB08000022FD0A3D
:1005900044EA47540A3002D500200146E9E7010544
:1005A00010196941DDE9084500196941BDE8F04DC0
:1005B000A2E72DE9FE4F804681EA0300C00F0C46FA
:1005C000009021F0004123F00045B8EB0200A94162
:1005D00005D24046214690461C460B46024623F073
:1005E0000040104347D0270DC7F30A00C3F30A5158
:1005F0000290401A019040286BDAC3F3130040F4D4
:10060000801B0098924620B10023D2EB030A63EBD3
:100610000B0B01985946C0F14002504600F024F9F6
:1006200006460D4650465946019A00F02CF910EB4B
:1006300008006141002487EA115284EAE7731A43F3
:1006400040D0009A62B3019A012A4FEA075215DCA2
:10065000001B61EB02014FF0004202EA0752CDE9B4
:100660000042001C41F5801132462B46FFF753FF34
:1006700003B0BDE8F08F40462146F9E7001B61EB6F
:100680000201001C41F5801300185B412018A2F5FF
:10069000001747EB030140EAD570B6196D4111E030
:1006A0006D084FEA360645EAC0754FEA0752001B4F
:1006B00061EB0201001C41F5801149084FEA30004E
:1006C0000019514132462B4603B0BDE8F04FFFF709
:1006D00013BF0098012240000023D0EB020263EB1D
:1006E000E073009821464FEAE074B8EB000061EB3C
:1006F0000401E9E783F000435BE781F0004158E73C
:100700002DE9FE4F81EA030404F0004421F000418A
:1007100000944FF0000B23F0004350EA01045ED038
:1007200052EA03045BD0C3F30A54C1F30A552C44C4
:10073000A4F2F3340194A0FB0254C1F3130141F479
:100740008011C3F3130343F4801301FB024400FB45
:10075000034E840A970A44EA815447EA8357A4FB6C
:10076000076802958D0A05FB07854FEA932C04FB69
:100770000C542705029D4FEA065847EA1637B5EB99
:1007800008056EEB070C870E920E47EA811742EAC6
:100790008312A7FB0201B6EB0B0164EB00042B0DE7
:1007A00043EA0C335E1844EB1C50DA465146E7FB33
:1007B0000201C5F313044FEA0B3343EA14534FEA23
:1007C0000432019C43EA0603A4F10C040294009C49
:1007D000CDE900B4FFF79FFE03B0BDE8F08F002025
:1007E0000146F9E7C1F30A52C1F3130140F2FF33A6
:1007F00041F480119A4202DA00200146704740F22B
:1008000033439A42A2F2334202DC5242FFF72DBE3A
:1008100000F02AB830B5041E71F1000404DB4FF07B
:100820000044404264EB0101141E73F1000405DB37
:100830001C464FF00043524263EB0403994208BF49
:10084000904230BD064C074D06E0E06840F00103E1
:1008500094E8070098471034AC42F6D3FFF74AFCFF
:1008600094460008B4460008202A04DB203A00FA27
:1008700002F1002070479140C2F1200320FA03F3F7
:10088000194390407047202A06DBCB17203A41FAE3
:1008900002F043EAE07306E041FA02F3D040C2F10D
:1008A0002002914008431946704770B58C1810F823
:1008B000015B15F0070301D110F8013B2A1106D1A5
:1008C00010F8012B03E010F8016B01F8016B5B1EBF
:1008D000F9D12B0705D40023521E0DD401F8013B9A
:1008E000FAE710F8013BCB1A921C03E013F8015B06
:1008F00001F8015B521EF9D5A142D8D3002070BD8A
:1009000070B505460C46284600F0C4F9204600F0B4
:100910006DFE70BD00BFFEE710B50021014801F07B
:10092000C2F810BD0004004070472DE9F0410246B6
:1009300000250026002000230024002791F803C092
:100940000CF00F0591F803C00CF0100CBCF1000F77
:1009500003D091F802C04CEA050591F800C0BCF143
:10096000000F31D0146800202BE04FF0010C0CFA7E
:1009700000F3B1F800C00CEA03069E4220D18300C8
:100980004FF00F0C0CFA03F7BC4305FA03FC4CEADA
:10099000040491F803C0BCF1280F06D14FF0010CFC
:1009A0000CFA00FCC2F814C00AE091F803C0BCF1D4
:1009B000480F05D14FF0010C0CFA00FCC2F810C032
:1009C000401C0828D1D31460B1F800C0BCF1FF0F5F
:1009D00034DD546800202EE000F1080C4FF00108CF
:1009E00008FA0CF3B1F800C00CEA03069E4221D1CC
:1009F00083004FF00F0C0CFA03F7BC4305FA03FC1D
:100A00004CEA040491F803C0BCF1280F05D100F1B1
:100A1000080C08FA0CF8C2F8148091F803C0BCF175
:100A2000480F07D100F1080C4FF0010808FA0CF844
:100A3000C2F81080401C0828CED35460BDE8F08175
:100A40000246002093680B400BB1012000E000201B
:100A500070474161704701617047000010B500BFE9
:100A6000094800884FF47A7100FB01F4074801F04F
:100A700026F804440020054924310880322002F081
:100A800081F8204610BD000014160020000400402C
:100A900070B505460C46284600F010F9204600F0D7
:100AA000B7FD70BD08B50121082000F007FD1B202F
:100AB000ADF8000028208DF8030069460148FFF7D3
:100AC00034FF08BD000C014000BFFEE72DE9F04FE8
:100AD0008FB04FF0000A00252EE001203349086056
:100AE0000A2002F075F800203149C1F8940100BFD6
:100AF0002E48703800680028FAD000F0BBFC00BF18
:100B00002A48703800680128FAD0FFF705FFFFF780
:100B1000A5FF0190FFF719FC8346FFF734FC002284
:100B2000244BCDE90201FFF7A1FB0746FFF712FCBA
:100B300004A941F825006D1C0A2DCED300261CE027
:100B4000002415E004A850F8241004AA601C52F8F0
:100B5000200081420BD904A850F8249004A9601CFD
:100B600051F8200041F82400601C41F82090641CDA
:100B7000C6F10900A042E5D8761C092EE0D3012574
:100B80000AE004A951F82500FFF7DFFB07465146AC
:100B9000FFF7D6FA82466D1C092DF2D34FF0824141
:100BA0005046FFF725FB0FB0BDE8F08F948121423E
:100BB0000080214200004D4010B580210748FFF71A
:100BC0004AFF20210548FFF746FF80210348FFF731
:100BD00040FF20210148FFF73CFF10BD0008014005
:100BE00010B520210548FFF736FF80210348FFF7A5
:100BF00030FF80210148FFF72EFF10BD00080140A3
:100C000010B520210348FFF726FF20210148FFF7F8
:100C100020FF10BD0008014008B50121102000F0A0
:100C20004DFC4FF40050ADF8000010208DF803008B
:100C300003208DF8020069460648FFF776FE4FF460
:100C400000510448FFF707FF4FF400510148FFF738
:100C500000FF08BD0010014008B50121082000F088
:100C60002DFCC020ADF8000010208DF803000320FB
:100C70008DF8020069460648FFF757FE40210448F8
:100C8000FFF7E7FE80210248FFF7E3FE08BD000002
:100C9000000C014010B5044640210648FFF7D9FE7C
:100CA00080210448FFF7D7FEA1B2034801F02DF8D8
:100CB00010BD0000000C01400008004010B50446C3
:100CC00040210648FFF7C7FE80210448FFF7C1FE18
:100CD000A1B2034801F019F810BD0000000C01405A
:100CE0000008004000BFFEE7704708B54FF4806081
:100CF00000F046F827208DF8000001208DF8010053
:100D00008DF802008DF80300684600F001F808BD78
:100D100070B5002100230F22C47804B3154C246859
:100D200004F4E064C4F5E064210AC1F10403CA409C
:100D3000447804FA03F184781440214309010E4CED
:100D40000678A155047804F01F050124AC4005780D
:100D50006D11AD0005F1E025C5F8004109E004780A
:100D600004F01F050124AC40044D0678761145F8C7
:100D7000264070BD0CED00E000E400E080E100E002
:100D800002490143024A1160704700000000FA0561
:100D90000CED00E070B500240CE0002506E000201A
:100DA000074901EBC5010855681CC5B2802DF6DB6B
:100DB000601CC4B2082CF0DB00F0DEF970BD00004E
:100DC000FC16002070B50B46CE1701EB5676C6F325
:100DD000C702CE1701EB5676F610A1EBC606F4B2A9
:100DE0000123A340DDB20E4B03EBC0039B5CDB434E
:100DF0000B4E06EBC006B354094B03EBC0039B5CE0
:100E00002B43074E06EBC006B354054B03EBC00360
:100E10009B5CDB43024E06EBC006B35470BD000082
:100E2000FC16002010B504461CB90021A62000F0D5
:100E300005FB012C03D10021A72000F0FFFA10BD13
:100E400010B504463CB90021C82000F0F7FA002193
:100E5000A12000F0F3FA012C07D10021C02000F0FE
:100E6000EDFA0021A02000F0E9FA10BD2DE9F043D1
:100E700006460F469046002544463BE03A1BD1B259
:100E80007219D0B200F096F83A1BD1B2721BD0B2F0
:100E900000F090F83A19D1B2721BD0B200F08AF883
:100EA0003A19D1B27219D0B200F084F87A19D1B2DD
:100EB0003219D0B200F07EF87A1BD1B23219D0B21A
:100EC00000F078F87A1BD1B2321BD0B200F072F881
:100ED0007A19D1B2321BD0B200F06CF86D1C05FB50
:100EE00005F004FB040008FB1809B9F1000F01DD4F
:100EF000641E6D1E6000604308FB08F18842BDDA85
:100F0000BDE8F0832DE9F84F05460E461746984692
:100F1000002D0ADB802F08DC002E06DBB8F1400F25
:100F200003DCBD4201DC464501DDBDE8F88FBD4272
:100F30000DD1002406E03019C1B2284600F03AF87D
:100F4000601CC4B2A8EB0600A042F4DC30E04645C9
:100F50000CD1002406E02919C8B2314600F02AF865
:100F6000601CC4B2781BA042F5DC21E0A8EB0600AF
:100F700000F0FF0A781B00F0FF0B0AEB8A0040002C
:100F800090FBFBF000F0FF0900240EE004FB09F0E9
:100F90000A2190FBF1F03044C0B229190090C8B288
:100FA000009900F007F8601CC4B2781BA042EDDC89
:100FB00000BFBAE770B50A46CE1701EB5676C6F306
:100FC000C703CE1701EB5676F610A1EBC606F4B2B6
:100FD0000122A240D5B2054A02EBC002D25C2A43EC
:100FE000024E06EBC006F25470BD0000FC16002055
:100FF00008B50121042000F061FAB020ADF800002E
:1010000010208DF8030003208DF802006946524835
:10101000FFF78BFCB0215048FFF71DFD0121082090
:1010200000F04CFA0320ADF8000010208DF803000A
:1010300003208DF8020069464848FFF776FC03213B
:101040004648FFF708FD01214448FFF704FD6420EE
:1010500001F098FD01214148FFF7FBFCC82001F099
:1010600091FD01213D48FFF7F6FC02213B48FFF7C7
:10107000F0FC0021AE2000F0E1F90021084600F06C
:10108000DDF90021102000F0D9F90021402000F006
:10109000D5F90021812000F0D1F90021CF2000F006
:1010A000CDF90021A12000F0C9F90021C82000F0ED
:1010B000C5F90021A62000F0C1F90021A82000F008
:1010C000BDF900213F2000F0B9F90021D32000F044
:1010D000B5F90021084600F0B1F90021D52000F053
:1010E000ADF90021802000F0A9F90021D92000F0FD
:1010F000A5F90021F12000F0A1F90021DA2000F08B
:101100009DF90021122000F099F90021DB2000F068
:1011100095F90021402000F091F90021202000F0F5
:101120008DF90021022000F089F900218D2000F0C6
:1011300085F90021142000F081F90021A42000F09D
:101140007DF90021A62000F079F90021AF2000F000
:1011500075F9FFF71FFE08BD00080140000C0140B3
:1011600010B50246012000E050430B1EA1F101041E
:10117000E1B2F9D110BD000070B500241CE004F10B
:10118000B001C8B2002100F059F90021084600F072
:1011900055F90021102000F051F9002508E0084918
:1011A00001EBC501085D012100F048F9681CC5B2DA
:1011B000802DF4DB601CC4B2082CE0DB70BD0000A5
:1011C000FC1600202DE9FF4F81B080460E461C46DC
:1011D00000962046E31704EB5373DB1021464FEAD9
:1011E000E47C04EB5C7C4FEAEC0CA4EBCC0CBCF193
:1011F000000F02D04FF0010C01E04FF0000C6344EF
:10120000224604EBD27C4FEA6C0C03FB0CF303F098
:10121000FF0B03982038C7B2002547E00C2C07D1FC
:1012200007EB4700234901EB800010F805A014E00C
:10123000102C05D1204800EB071010F805A00CE099
:10124000182C07D107EBC7001C4901EB800010F8F0
:1012500005A002E005B0BDE8F08F4FF000091FE0E7
:101260000AF0800020B131464046FFF7A3FE03E0BC
:1012700031464046FFF7A6FD4FEA4A604FEA106A42
:10128000701CC6B20098301AA04205D1009E08F129
:10129000010000F0FF0806E009F1010000F0FF097D
:1012A000B9F1080FDCDB00BF681CC5B25D45B5DBDA
:1012B00000BFCFE7D42E00084833000838390008B3
:1012C0002DE9FF4F0746884691461C464FF0000B1C
:1012D0000297CDF804802046E11704EB5171C1F369
:1012E000C701009160E009FB04F0C11700EB5171E8
:1012F0000BEBE101CEB20BF1010000F0FF0B00257A
:1013000050E0102C05D12C4800EB0610405D0390F6
:101310001BE0182C07D106EBC600284901EBC000E2
:10132000405D039011E0202C05D1254800EBC6104C
:10133000405D039009E0402C05D1224800EB462097
:10134000405D039001E0BDE8FF8F4FF0000A17E019
:10135000039800F0010020B141463846FFF72AFE0D
:1013600003E041463846FFF72DFD039840100390F7
:1013700008F1010000F0FF080AF1010000F0FF0A87
:10138000BAF1080FE4DB781CC7B20298381AA04201
:1013900004D1029F01980830C0B20190DDF80480AA
:1013A000681CC5B2A542ACDB0098411EC9B20091D1
:1013B000002898D100BFC6E71B0000203B03002097
:1013C00013040020130600202DE9F04F06468A463C
:1013D00091461F46099C00252CE0781B401EC1B297
:1013E0000A20FFF7BDFEB9FBF0F00A21B0FBF1F2D5
:1013F00001FB1208B8F1000F0CD1A34604EBDB711E
:10140000491001FB0561C8B2234630225146FFF75F
:10141000D9FE0DE0A34604EBDB71491001FB056129
:10142000C8B208F13001CAB223465146FFF7CAFEDE
:10143000681CC5B2BD42D0DBBDE8F08F70B5054673
:101440000C46FFF7B9FB782000F0F6F8FFF7D8FB61
:101450001CB1402000F0F0F802E0002000F0ECF8B1
:10146000FFF7CEFB284600F0E7F8FFF7C9FBFFF7D0
:10147000B7FB70BD10B50021054800F048FC002006
:10148000044908800121024800F00DFB10BD000056
:1014900000040040141600207047000029B1064ADD
:1014A000D2690243044BDA6104E0034AD269824301
:1014B000014BDA61704700000010024029B1064A72
:1014C00092690243044B9A6104E0034A92698243A1
:1014D000014B9A61704700000010024030B50021B6
:1014E0000022002400232D4D6D6805F00C0121B170
:1014F000042905D0082923D105E0294D056022E003
:10150000274D05601FE0254D6D6805F47012234DD1
:101510006D6805F48034022505EB92421CB9214D1B
:10152000554305600BE01D4D6D6805F400351DB198
:101530001C4D5543056002E0194D5543056002E01E
:10154000174D056000BF00BF144D6D6805F0F00138
:101550000909154D6B5C0568DD4045600F4D6D68F0
:1015600005F4E061090A104D6B5C4568DD4085605B
:101570000A4D6D6805F46051C90A0B4D6B5C4568F6
:10158000DD40C560054D6D6805F44041890B074D90
:101590006B5CC568B5FBF3F5056130BD001002401A
:1015A00000127A0000093D001616002026160020C1
:1015B00008B501210420FFF781FF0620ADF80000E7
:1015C00010208DF8030003208DF8020069460648BC
:1015D000FFF7ABF902210448FFF73BFA0421024868
:1015E000FFF737FA08BD00000008014010B50446B7
:1015F00002210648FFF72DFA04210448FFF72BFAD1
:10160000A1B24FF0804000F07EFB10BD0008014009
:1016100010B5044602210648FFF71DFA04210448CC
:10162000FFF717FAA1B24FF0804000F06CFB10BD3D
:10163000000801407047000070B5044600251BE01B
:1016400020210F48FFF705FA04F0800020B1802127
:101650000B48FFF700FA03E080210948FFF7F9F98A
:1016600020210748FFF7F7F920210548FFF7F1F996
:101670006006040E681CC5B2082DE1DB70BD0000D9
:101680000008014010B500F001F810BD0CB50020B5
:10169000019000903348006840F480303149086080
:1016A00000BF3048006800F4003000900198401CF2
:1016B0000190009818B90198B0F5A06FF1D12948B0
:1016C000006800F4003010B10120009001E000201B
:1016D00000900098012843D12348006840F0100092
:1016E000214908600846006820F0030008600846A9
:1016F000006840F0020008601A48406819494860D4
:101700000846406848600846406840F48060486089
:101710000846406820F47C1048600846406840F461
:10172000E81048600846006840F08070086000BF1C
:101730000C48006800F000700028F9D009484068A3
:1017400020F00300074948600846406840F0020066
:10175000486000BF0348406800F00C000828F9D139
:101760000CBD0000001002400020024070B505468C
:101770000C462846FFF7A2FA2046FFF749FF284605
:10178000FFF788FA2046FFF731FF40210348FFF7B3
:1017900060F980210148FFF75CF970BD000C014041
:1017A000042808D14FF0E021096941F004014FF00D
:1017B000E022116107E04FF0E021096921F0040106
:1017C0004FF0E022116170477047000010B51348D8
:1017D000006840F00100114908600846406810495F
:1017E00008400E494860084600680E4908400B4909
:1017F00008600846006820F48020086008464068B9
:1018000020F4FE0048604FF41F008860FFF73AFFA5
:101810004FF000600449086010BD00000010024055
:101820000000FFF8FFFFF6FE08ED00E038B5FA24EF
:10183000FFF7F2F901F084F900F0E6FA00F022FB7C
:10184000092140F2E73000F061F8092140F2E73069
:1018500000F0C4F8A1000846FFF71AF94FF4A060A1
:10186000FFF78EFAFFF7C4FB0020FFF7DBFA00203A
:10187000FFF7E6FA00210846FFF79CFB3C233222E3
:1018800000211420FFF73EFB142220214020FFF707
:10189000EDFAA00001F076F9FFF77CFA10230022A0
:1018A00014212420FFF70CFD1023012214213620DF
:1018B000FFF706FD1020012300900748027814214D
:1018C0004820FFF781FDFFF757FCFFF7EBF8FFF724
:1018D0006FFEFFF7C1F938BD1800002010B50121D7
:1018E000880700F0EFF8012806D104A000F0AEFC54
:1018F0000121880700F0D4F810BD000068656C6C09
:101900006F776F726C640D0A0000000030B589B00B
:1019100005460C4601210420FFF7D0FD01210846B1
:10192000FFF7BCFD0120ADF8200018208DF8230042
:1019300003208DF8220008A91D48FEF7F6FFADF838
:101940001850ADF814400020ADF81600ADF81A009C
:1019500005A94FF0804000F0DDF97020ADF80400DB
:101960000020ADF80C000120ADF806000020ADF815
:101970000A0001A94FF0804000F00CF901A94FF0D6
:10198000804000F0B1F800214FF0804000F0F8F8FE
:1019900000214FF0804000F04FF90121880700F04E
:1019A00073F80121880700F07EF809B030BD00000F
:1019B0000008014010B50121064800F083F840B14D
:1019C0000121044800F06CF803480088401C0249DB
:1019D000088010BD000400401416002030B589B006
:1019E00005460C4601210820FFF768FD012104206F
:1019F000FFF754FD4FF48070ADF8200018208DF8EB
:101A0000230003208DF8220008A91D48FEF78DFF52
:101A1000ADF81850ADF814400020ADF81600ADF840
:101A20001A0005A9174800F075F97020ADF80400F8
:101A30000020ADF80C000120ADF806000020ADF844
:101A40000A0001A90F4800F005F91E208DF80000DA
:101A500001208DF803008DF801008DF80200684622
:101A6000FFF756F90021074800F044F90121054825
:101A700000F00AF80121034800F015F809B030BD64
:101A8000000C01400008004021B1028842F08002B1
:101A9000028004E002884FF67F731A40028070478C
:101AA000CA430282704721B1028842F001020280DB
:101AB00004E002884FF6FE731A4002807047014628
:101AC000888C704730B50246002000230024158A18
:101AD00005EA0103958905EA010413B10CB101205F
:101AE00000E0002030BD000070B50024002200237B
:101AF000058C4FF6FE7635400584028C8388048B76
:101B00004FF68F752C40B51E2C400D882C43751E4A
:101B10002A400D892A434D882A43144DA8420BD0F0
:101B2000134DA84208D0134DA84205D0124DA8422B
:101B300002D0124DA84213D14FF6F7752A404D89B5
:101B40002A434FF6FB752A408D882A434FF6FF65DE
:101B50002B404FF6FF552B408D892B43CD892B43CE
:101B600083800483CD888586028470BD002C01406B
:101B70000034014000400140004401400048014061
:101B80000A460021018B4FF6F77319401143018378
:101B90007047000070B5002400220023058C4FF62A
:101BA000EF7635400584028C8388048B48F6FF75F8
:101BB0002C404FF6FF452C400D884FF6FF7606EA85
:101BC00005252C434FF6DF752A400D8906EA0515D9
:101BD0002A434D8806EA05152A43154DA84202D02E
:101BE000144DA8421DD14FF67F752A404D894FF6FE
:101BF000FF7606EA05152A434FF6BF752A408D8801
:101C000006EA05152A434FF6FF352B404FF2FF75C4
:101C10002B408D8906EA85052B43CD8906EA85058B
:101C20002B4383800483CD880587028470BD000028
:101C3000002C0140003401400A460021018B4FF284
:101C4000FF7319404FF6FF7303EA02231943018320
:101C50007047000070B5002400220023058C4FF669
:101C6000FF6635400584028C8388848B4FF68F7520
:101C70002C404FF6FC752C400D882C434FF6FF5539
:101C80002A400D894FF6FF7606EA05252A434D883E
:101C900006EA05252A43154DA84202D0144DA84254
:101CA0001DD14FF2FF752A404D894FF6FF7606EAA7
:101CB00005252A434FF6FF352A408D8806EA05257B
:101CC0002A434EF6FF752B404DF6FF752B408D894C
:101CD00006EA05152B43CD8906EA05152B438380BB
:101CE0008483CD888587028470BD0000002C01406C
:101CF000003401400A460021818B4FF6F7731940EA
:101D00001143818370478186704781877047818442
:101D100070470000002202881D4B98420ED01D4BD8
:101D200098420BD0B0F1804F08D01B4B984205D0A1
:101D30001A4B984202D01A4B984204D14FF68F7337
:101D40001A404B881A43174B984207D0164B9842BB
:101D500004D04FF6FF431A40CB881A4302808B8889
:101D600083850B8803850A4B98420BD0094B984218
:101D700008D00E4B984205D00D4B984202D00D4B27
:101D8000984201D10B7A03860123838270470000B9
:101D9000002C0140003401400004004000080040D5
:101DA000000C0040001000400014004000400140C2
:101DB000004401400048014070B505460C462846E5
:101DC000FEF77CFF2046FFF723FC70BD70B505468B
:101DD0000C462846FEF772FF2046FFF719FC70BD3F
:101DE00070B505460C462846FEF768FF2046FFF70B
:101DF0000FFC70BD70B505460C462846FEF75EFF29
:101E00002046FFF705FC70BD00B585B0012144F206
:101E10000400FFF753FB4FF40070ADF810001820DA
:101E20008DF8130003208DF8120004A91348FEF763
:101E30007CFD4FF48060ADF8100004208DF8130095
:101E400004A90E48FEF771FD4FF4E1300090002028
:101E5000ADF80400ADF80600ADF80800ADF80C00D0
:101E60000C20ADF80A006946054800F077F9012119
:101E7000034800F00BF905B000BD00000008014068
:101E80000038014000B585B001218804FFF706FB4A
:101E900001210820FFF712FB4FF48060ADF810001D
:101EA00018208DF8130003208DF8120004A917489C
:101EB000FEF73BFD4FF40060ADF8100004208DF8F4
:101EC000130004A91148FEF730FDFEF70EFF4FF492
:101ED000165000900020ADF80400ADF80600ADF8F3
:101EE0000800ADF80C000C20ADF80A00694608485F
:101EF00000F034F9012240F22551054800F009F9BB
:101F00000121034800F0C2F805B000BD000C0140FB
:101F10000048004038B540F22551514800F0CFF854
:101F200000283DD04E4800F085F9C4B24D480078F5
:101F3000012830D1572C08D157204B4908704FF455
:101F400096710846FEF7A4FD25E0532C08D15320D6
:101F5000454908704FF496710846FEF7D1FC1AE027
:101F6000412C08D14120404908704FF4C871962097
:101F7000FFF722FF0FE0442C08D144203A490870B3
:101F800096214FF4C870FFF72BFF04E0432C02D1D9
:101F9000432035490870232C03D1012033490870B0
:101FA0005CE0452C48D1324932A0FEF7BBF818B9A5
:101FB00001202C49087010E02D4930A0FEF7B2F83E
:101FC00018B902202749087007E029492DA0FEF71B
:101FD000A9F810B90320234908700020234908708C
:101FE00009E000202249214A127888541F480078CD
:101FF000401C1E4908701D4800782028F1DB002095
:102000001A490870FEF7C6FE10230022142124206E
:10201000FFF756F91023012214213620FFF750F95B
:102020001020012300900F48027814214820FFF768
:10203000CBF9FFF7A1F811E00C48007800280DDD7E
:102040000A480078C82809DC08480078401E08497A
:102050000C5406480078401C0449087038BD000044
:1020600000480040180000201A000020190000203D
:10207000341600206D6F6465310000006D6F64657B
:10208000320000006D6F64653300000021B1828969
:1020900042F40052828104E082894DF6FF731A40B7
:1020A0008281704702460020B1F5007F00D100BF59
:1020B00013880B400BB1012000E00020704770B581
:1020C0000246002400230025002040F66A16B14293
:1020D00000D100BFC1F3421501F01F03012606FA2B
:1020E00003F3012D02D19689334006E0022D02D17F
:1020F000168A334001E0968A33400C12012606FA14
:1021000004F41688344013B10CB1012000E0002023
:1021100070BDF0B50346002400260025002040F6DF
:102120006A17B94200D100BF1846C1F3421401F04A
:102130001F06012707FA06F5012C01D10C3004E037
:10214000022C01D1103000E014301AB107682F437F
:10215000076002E00768AF430760F0BD2DE9F04774
:1021600086B005460E460024A24600BFA1460027C1
:10217000B08900B100BF2F462C8A4CF6FF70044096
:10218000F08804432C82AC894EF6F3100440B088EA
:1021900031890843718908430443AC81AC8A4FF606
:1021A000FF400440B0890443AC8201A8FFF796F9D0
:1021B0001F48874202D1DDF810A001E0DDF80CA035
:1021C000A88900F4004040B10AEBCA0000EB0A10F5
:1021D00031684900B0FBF1F807E00AEBCA0000EBF8
:1021E0000A1031688900B0FBF1F86420B8FBF0F008
:1021F00004012009642101FB1089A88900F4004032
:1022000040B1322000EBC900B0FBF1F000F0070054
:10221000044308E0322000EB09106421B0FBF1F028
:1022200000F00F0004432C8106B0BDE8F0870000E9
:102230000038014001468888C0F308007047C1F3A8
:1022400008028280704700BFFEE700000FB4054B14
:1022500010B503A9044A029800F0DAF810BC5DF842
:1022600014FB00001D2C00083016002002E008C8F6
:10227000121F08C1002AFAD170477047002001E000
:1022800001C1121F002AFBD1704700002DE9FF5F3A
:1022900082B00021DDE90430020DDDF840B00343D7
:1022A00018D044F61050A2F2FF3242431514119890
:1022B00001281FD0A5EB0B00401C5FEA000A4FF07D
:1022C00000064E4FDFF83891B046504615D5CAF19A
:1022D000000413E0119801244AA3012801D16FEAF8
:1022E0000B010298119AC0E90031C0E9024206B020
:1022F000BDE8F09FCBF10000DFE704460021404A33
:10230000491842EB0450CDE9001012E0E00707D075
:1023100032463B4640464946FEF7F2F9804689463A
:1023200032463B4610461946FEF7EAF906460F4686
:102330006410002CEAD1DDE90401DDE90023BAF1E3
:10234000000F06DAFEF7DCF942464B46FEF7D8F9F5
:1023500005E0FDF78BFF42464B46FDF787FF04463D
:102360000E460022284BFEF755FA03D84FF0FF30F7
:10237000014607E00022254B20463146FEF719F9B9
:10238000FEF730FA102409E0002C0ADB0A220023B1
:10239000FEF73AF8039B30321A55641E50EA0102E8
:1023A000F2D1641C039AC4F111031444119A012A56
:1023B00003D0012208430DD10AE0084304D00020D5
:1023C0004FF0110B119072E7A3EB0B056D1E0DE0A2
:1023D0005B4504DD4FF0000205F1010504E003DA7E
:1023E0004FF00002A5F10105002AECD002981199E6
:1023F000C0E90231C0E9004579E70000000014405F
:102400000000F03F300000000000F0430000E03F1B
:102410002DE9FF4F95B09B468946064600250FE201
:10242000252877D100242746F84A0121059400E0A9
:10243000044316F8013F203B01FA03F01042F7D1A4
:1024400030782A2811D06FF02F033078A0F13002B5
:10245000092A16D8059A44F0020402EB820203EB23
:1024600042021044761C0590EFE759F8042B0592C0
:10247000002A03DA504244F40054059044F0020468
:10248000761C30782E2816D116F8010F44F004047B
:102490002A280DD06FF02F023078A0F13003092BDD
:1024A00009D807EB870302EB4303C718761CF3E751
:1024B00059F8047B761C30786C280FD006DC4C2849
:1024C00017D068280DD06A2814D104E0742810D0E1
:1024D0007A280FD10DE044F400140AE044F480148B
:1024E00001E044F440147278824202D104F5801471
:1024F000761C761C307866280BD013DC582877D0F1
:1025000009DC002875D04528F6D04628F4D04728A5
:102510001AD19DE118E0632835D0642879D0652868
:1025200012D195E1702873D008DC6728F1D06928B2
:102530006FD06E280DD06F2806D1B5E073282CD04F
:10254000752875D0782874D05A46179990476D1C15
:1025500075E1C4F30250022809D003280DD0D9F840
:10256000001004280DD00D6009F1040967E1D9F8C5
:102570000010EA17C1E90052F6E7D9F800100D8003
:10258000F2E70D70F0E719F8041B8DF80010002039
:102590008DF80100EA46012003E059F804AB4FF042
:1025A000FF3061074FF0000102D40DE008F1010196
:1025B0008846B9420FDA8045F8DB1AF8081000297E
:1025C000F4D108E008F1010188468142FADB1AF8EB
:1025D00008100029F6D105985B46A0EB08072146B4
:1025E0003846179A00F094FA284400EB080507E0F3
:1025F0004DE029E10DE01AF8010B5A461799904772
:10260000B8F10108F7D25B4621463846179A13E124
:1026100042E00A220092C4F302524FF0000A022A5A
:1026200008D059F804CB032A4FEAEC710AD00DE028
:1026300029E02AE009F1070121F00702F2E802C1CE
:10264000914609E00FFA8CFC4FEAEC71042A03D1A1
:102650004FFA8CFC4FEAEC71002907DA0A46002198
:10266000DCF1000C61EB02012D2202E0220504D511
:102670002B228DF80420012203E0E20701D0202262
:10268000F7E7904659E00A2102E010220DE0102100
:102690004FF0000A00910BE010224FF0000A44F0C6
:1026A00004040827009203E008224FF0000A009279
:1026B000C4F30252022A05D059F804CB0021032AA0
:1026C00008D009E009F1070121F00702F2E802C190
:1026D000914605E01FFA8CFC042A01D10CF0FF0C96
:1026E0004FF00008220728D5702806D0009B83F001
:1026F000100353EA0A0305D00EE040228DF80420AF
:10270000012208E05CEA010206D030228DF80420A4
:102710008DF8050002229046009B83F0080353EADF
:102720000A030AD15CEA010201D1620705D5302211
:102730008DF804204FF001087F1E582804D034A0E3
:1027400003900EA802900DE036A0F9E753466046CC
:10275000009AFDF759FE84460398825C0298401E59
:10276000029002705CEA0100F0D1029806A9081AF2
:1027700000F1200A600702D524F4803400E001272C
:10278000574502DDA7EB0A0000E0002000EB0A013C
:10279000009005984144401A0590E00306D45B463A
:1027A0002146179A059800F0B3F90544002706E082
:1027B00001A85A46C05D179990476D1C7F1C47457C
:1027C000F6DBE0030CD55B462146179A059800F02E
:1027D0009FF9054404E030205A46179990476D1C34
:1027E0000099481E00900029F5DC08E00298029943
:1027F0005A460078491C0291179990476D1CBAF10E
:102800000001AAF1010AF1DC65E1000009280100DC
:102810003031323334353637383961626364656656
:102820000000000030313233343536373839414218
:10283000434445460000000000F058F90544761C6A
:10284000307800287FF4ECAD19B02846BDE8F08F51
:10285000620700D4062709F1070222F0070CFCE802
:102860000223E14603F000485FEA080C02D00FF2B1
:10287000702C0DE05FEA045C02D50FF2682C07E0D3
:102880005FEAC47C02D00FF2602C01E0AFF2700C62
:102890004FF0FF3823F00043CDF850C065280CD02E
:1028A00006DC452809D046281DD047283DD13DE00B
:1028B000662818D067287ED138E00021112F01DB6F
:1028C000112000E0781CCDE9000106A90EA8FFF751
:1028D000DDFCDDE90F010E9A03910021009207F162
:1028E000010A04914DE04FF000400097CDE901103E
:1028F00006A90EA8FFF7CAFCDDE90F0203920E9BA2
:1029000011990022DDF80CA00093049211B9791CF2
:1029100000EB010AB7EB0A0004D4C0F1FF3007F165
:10292000010A0490AAEB0700019044E0012F00DAAD
:1029300001270021112F01DD112000E03846CDE9EB
:10294000000106A90EA8FFF7A1FCDDE90F010E9A10
:102950000391002104910092BA4621070CD40399F7
:10296000514500DA8A46BAF1010F05DD009AAAF155
:102970000101515C302908D0B84202DA10F1040F8D
:1029800006DA0121CDE9011015E0AAF10101E9E71C
:10299000002805DC049901440491AAEB000102E03F
:1029A000411C514500DD8A460499401A401C0190A3
:1029B0004FF000400290200704D40198504501DBFD
:1029C000CDF8048000208DF84F0002980DF14F07DC
:1029D000B0F1004F25D02B200E9002984FF0020846
:1029E00000280CDA404202902D200E9007E00A21C8
:1029F0000298FDF7F3FC3031029007F8011DB8F1A1
:102A00000001A8F10108F2DC02980028EFD1791E3C
:102A10000E980870307800F0200040F0450007F86C
:102A2000020D12A8C01B00F107081498007800B12D
:102A3000012000EB0A01019801EBE0710598414487
:102A4000401A401E0590E00306D45B462146179AC3
:102A5000059800F05DF805441498007818B15A46BE
:102A6000179990476D1CE00324D55B462146179AC1
:102A7000059800F04DF805441CE00498002807DB99
:102A8000DDE90301884203DD0098405C179901E00D
:102A9000179930205A469047049805F10105401CCB
:102AA00004900198401E019004D12E205A46179997
:102AB00090476D1CBAF10001AAF1010ADDDC05E0C6
:102AC00017F8010B5A46179990476D1CB8F1000191
:102AD000A8F10108F4DC5B462146179A0598ABE69D
:102AE0002D0000002B000000200000002DE9F04127
:102AF000044600251E461746880404D405E03946DE
:102B00002020B0476D1C641EF9D52846BDE8F08131
:102B10002DE9F041044600251E469046C80301D524
:102B2000302700E02027880404D505E041463846D8
:102B3000B0476D1C641EF9D52846BDE8F081000041
:102B400010B56FF00400FEF72BFE0A4800680A4932
:102B5000B0FBF1F0094908700846007800EB40012D
:102B6000C1EBC0104FF6FF7101EAC00004490880B4
:102B700010BD00000400002000127A002A16002078
:102B80002C1600200146114A12884A434FF0E023D8
:102B90005A6100229A611A46126942F001021A61D2
:102BA00000BF4FF0E022106900F001021AB100F4FA
:102BB0008032002AF5D04FF0E022126922F00102A3
:102BC0004FF0E0231A6100229A6170472C16002012
:102BD0000146114A12784A434FF0E0235A6100221D
:102BE0009A611A46126942F001021A6100BF4FF061
:102BF000E022106900F001021AB100F48032002ACC
:102C0000F5D04FF0E022126922F001024FF0E023EC
:102C10001A6100229A6170472A16002070B5044696
:102C20000D46E1B20548FFF70AFB00BF402103480B
:102C3000FFF738FA0128F9D1204670BD003801406D
:102C4000FEF7F4FD2FE14FF4C8710846FDF720FFB1
:102C50009548007801284DD194480078B8B393483E
:102C60000078572805D14FF47A710846FDF710FF18
:102C70000FE18E480078532805D14FF47A71084649
:102C8000FDF73EFE05E18948007841280DD14FF45B
:102C90007A714FF44870FFF78FF841F65830FFF71C
:102CA00071FF002081490870F3E0804800784428D3
:102CB0000ED14FF448714FF47A70FFF791F841F656
:102CC0005830FFF75FFF002078490870E1E008E026
:102CD000764800784328CBD100210846FEF746FD10
:102CE000D7E0724800780028C2D100210846FEF7DC
:102CF0003DFDCEE06C48007802287BD100206B4976
:102D0000087008216A48FDF79BFEB8B91021684891
:102D1000FDF796FE90B902216548FDF791FE68B96E
:102D200001216348FDF78CFE40B94FF44871084615
:102D3000FDF7AEFE6420FFF725FFAAE008215C48FE
:102D4000FDF77EFEC0B910215948FDF779FE98B90C
:102D500002215748FDF774FE70B901215448FDF770
:102D60006FFE012808D1FA218800FFF739F84FF4E7
:102D7000FA70FFF707FF8CE008214D48FDF760FE71
:102D8000012818D110214A48FDF75AFE98B90221AE
:102D90004748FDF755FE70B901214548FDF750FE43
:102DA00048B94FF47A71FA20FFF706F84FF4FA7039
:102DB000FFF7E8FE6DE008213D48FDF741FED0B980
:102DC00010213B48FDF73CFEA8B902213848FDF729
:102DD00037FE01280FD101213548FDF731FE50B9EA
:102DE0004FF448714FF47A70FFF704F8C820FFF7EA
:102DF000C9FE4EE01EE008212D48FDF721FEE8BB8C
:102E000010212B48FDF71CFE012842D10221284841
:102E1000FDF716FE90BB01212548FDF711FE68BBAA
:102E20004FF47A714FF44870FEF7D0FFC820FFF7D7
:102E3000A9FE2EE01C48007803282AD1FDF746FEA3
:102E40001C49086008460068FDF79DFA04462246C2
:102E50000B4619A0FFF7FAF94FF461710846FEF727
:102E6000ABFF6420FFF78EFE12480068FDF78BFA77
:102E700004460022124BFDF799FA00E009E008D25F
:102E80004FF461716420FEF797FF4FF47A70FFF7FB
:102E900079FE4FF07E50074908600AA0FFF7D6F987
:102EA00008A0FFF7D3F9CEE6180000201A00002092
:102EB000000C01400000002025660D0A0000000003
:102EC0000000374068656C6C6F776F726C640D0A38
:102ED00000000000000000000000000000000000F2
:102EE000000000003F400000000000000000300033
:102EF000400030004000000009000BC03D000BC046
:102F00003D00090018C024407FE0224031800000CD
:102F1000180024C01B000D803240018003801C403B
:102F200027401C80074000401000600000000000A7
:102F3000000000000000000000001F802040402032
:102F40000000402020401F80000000000900060013
:102F50001F80060009000000040004003F800400F8
:102F600004000000001000600000000000000000ED
:102F700004000400040004000400000000000040FD
:102F80000000000000000000002001C00600380022
:102F9000400000001F802040204020401F80000093
:102FA000000010403FC000400000000018C0214059
:102FB000224024401840000010802040244024403B
:102FC0001B80000002000D0011003FC00140000006
:102FD0003C80244024402440238000001F80244063
:102FE00024403440038000003000200027C0380017
:102FF000200000001B802440244024401B8000004F
:103000001C0022C0224022401F800000000000005F
:103010000840000000000000000000000460000004
:1030200000000000000004000A0011002080404061
:1030300009000900090009000900000000004040E3
:10304000208011000A000400180020002340240002
:10305000180000001F802040274029401F4000002A
:10306000004007C039000F0001C0004020403FC0B1
:10307000244024401B8000001F802040204020402E
:103080003080000020403FC0204020401F800000D2
:1030900020403FC024402E4030C0000020403FC0B0
:1030A00024402E00300000000F00108020402240FD
:1030B0003380020020403FC0040004003FC0204095
:1030C000204020403FC020402040000000602020E1
:1030D00020203FC02000200020403FC024400B00A3
:1030E00030C0204020403FC020400040004000C091
:1030F0003FC03C0003C03C003FC0000020403FC038
:103100000C4023003FC020001F8020402040204072
:103110001F80000020403FC0244024001800000011
:103120001F802140214020E01FA0000020403FC020
:103130002440260019C0004018C0244024402240EA
:1031400031800000300020403FC0204030000000AF
:1031500020003F80004000403F80200020003E00D3
:1031600001C0070038002000380007C03C0007C03D
:1031700038000000204039C0060039C0204000005F
:103180002000384007C0384020000000304021C0F7
:103190002640384020C00000000000007FE04020B2
:1031A00040200000000070000C0003800040000080
:1031B0000000402040207FE00000000000002000D0
:1031C000400020000000000000100010001000105F
:1031D000001000100000000040000000000000008F
:1031E000000002800540054003C0004020003FC0B1
:1031F00004400440038000000000038004400440B9
:103200000640000000000380044024403FC000400E
:10321000000003800540054003400000000004401A
:103220001FC0244024402000000002E0055005504B
:103230000650042020403FC00440040003C000406A
:103240000000044027C000400000000000100010F3
:10325000041027E00000000020403FC001400700AC
:1032600004C00440204020403FC000400040000017
:1032700007C0040007C0040003C00000044007C0EA
:103280000440040003C000400000038004400440E8
:1032900003800000041007F0045004400380000085
:1032A000000003800440045007F00010044007C0F1
:1032B00002400400040000000000064005400540F4
:1032C00004C00000000004001F8004400040000013
:1032D000040007800040044007C0004004000700CD
:1032E00004C0018006000400060001C0070001C000
:1032F00006000000044006C0010006C004400000B3
:103300000410071004E001800600040000000440DF
:1033100005C00640044000000000000004007BE0FF
:1033200040200000000000000000FFF0000000004E
:10333000000040207BE0040000000000400080000E
:1033400040002000200040000000000000000000BD
:1033500000000000000000000000000000001FCC82
:10336000000C0000000000000000080030006000B9
:103370000800300060000000022003FC1E20022034
:1033800003FC1E200220000000000E1811043FFF65
:1033900010840C78000000000F0010840F3800C06B
:1033A000077818840078000000780F8410C4112476
:1033B0000E9800E400840008080068007000000017
:1033C000000000000000000000000000000007E016
:1033D00018182004400200000000400220041818C1
:1033E00007E00000000000000240024001800FF0F2
:1033F00001800240024000000080008000800FF841
:1034000000800080008000000001000D000E000020
:10341000000000000000000000000080008000802C
:1034200000800080008000800000000C000C000084
:10343000000000000000000000000006001800600E
:103440000180060018002000000007F008081004A2
:103450001004080807F000000000080408041FFC1E
:10346000000400040000000000000E0C10141024E2
:10347000104411840E0C000000000C1810041104FC
:10348000110412880C700000000000E003200424E6
:1034900008241FFC0024000000001F981084110461
:1034A0001104108810700000000007F00888110453
:1034B000110418880070000000001C00100010FCAF
:1034C00013001C001000000000000E38114410848E
:1034D000108411440E38000000000700088C1044CE
:1034E0001044088807F00000000000000000030CF2
:1034F000030C0000000000000000000000010106B5
:1035000000000000000000000000008001400220D8
:1035100004100808100400000220022002200220EB
:1035200002200220022000000000100408080410FD
:10353000022001400080000000000E001200100C6C
:10354000106C10800F00000003E00C1813E414242A
:1035500017C4082807D000000004003C03C41C4026
:10356000074000E4001C000410041FFC11041104B7
:1035700011040E880070000003E00C181004100401
:10358000100410081C10000010041FFC100410048C
:103590001004080807F0000010041FFC11041104B7
:1035A00017C410040818000010041FFC11041100B7
:1035B00017C010000800000003E00C1810041004ED
:1035C00010441C780040000010041FFC1084008090
:1035D000008010841FFC10040000100410041FFC65
:1035E000100410040000000000030001100110018D
:1035F0001FFE10001000000010041FFC11040380C7
:103600001464181C1004000010041FFC10040004B3
:1036100000040004000C000010041FFC1F0000FC4C
:103620001F001FFC1004000010041FFC0C0403000A
:1036300000E010181FFC100007F008081004100428
:103640001004080807F0000010041FFC108410800C
:10365000108010800F00000007F0081810241024BC
:10366000101C080A07F2000010041FFC11041100CE
:1036700011C011300E0C000400000E1C1104108447
:10368000108410441C3800001800100010041FFCA7
:10369000100410001800000010001FF810040004AF
:1036A000000410041FF8100010001E0011E0001CA0
:1036B000007013801C0010001FC0103C00E01F00B1
:1036C00000E0103C1FC000001004180C163401C0AC
:1036D00001C01634180C100410001C00130400FC68
:1036E00013041C00100000000804101C1064108457
:1036F00013041C04101800000000000000007FFEEE
:103700004002400240020000000030000C00038034
:103710000060001C00030000000040024002400264
:103720007FFE0000000000000000000020004000BC
:1037300040004000200000000001000100010001E5
:1037400000010001000100010000400040002000D5
:103750000000000000000000000000980124014467
:103760000144014400FC000410001FFC0088010417
:10377000010400880070000000000070008801044F
:1037800001040104008800000000007000880104AA
:10379000010411081FFC0004000000F8014401446A
:1037A0000144014400C800000000010401040FFCB2
:1037B0001104110411001800000000D6012901298C
:1037C000012901C90106000010041FFC008401004A
:1037D0000100010400FC000400000104190419FCAC
:1037E00000040004000000000000000300010101CB
:1037F000190119FE0000000010041FFC0024004005
:1038000001B4010C010400000000100410041FFCAE
:103810000004000400000000010401FC0104010098
:1038200001FC0104010000FC010401FC0084010012
:103830000100010400FC0004000000F80104010480
:103840000104010400F80000010101FF00850104EA
:10385000010400880070000000000070008801046E
:103860000104010501FF00010104010401FC0084C1
:103870000104010001800000000000CC01240124AB
:10388000012401240198000000000100010007F854
:103890000104010400000000010001F8000400041C
:1038A0000004010801FC0004010001800170000C0B
:1038B000001001600180010001F0010C003001C026
:1038C0000030010C01F0010000000104018C0074C3
:1038D0000170018C01040000010101810171000EE1
:1038E000001801600180010000000184010C013416
:1038F00001440184010C00000000000000000000F1
:1039000001003EFC400240020000000000000000F8
:10391000FFFF0000000000000000400240023EFCEB
:103920000100000000000000000060008000800036
:1039300040004000200020000000000000000000C7
:103940000000000000000000000000000000000077
:103950000000000000000000000000000000000067
:1039600000000000000000000000000F80380FFE83
:10397000380F803800000000000000000000000048
:103980000000000000000100000600000C000038EC
:1039900000003100000600000C000038000030007C
:1039A000000000000000000061800067F807F98057
:1039B0000061800061800061800061800067F8071D
:1039C000F98000618000000000000000000001C0DC
:1039D000E003E0F00630080418081FFFFE040E089C
:1039E0000787F00381E000000000000001F00006FE
:1039F0000C00040408060C7001F9C0000E00003B26
:103A0000E000EC18070808040C180003E0000000B0
:103A10000001E00007F003F818041C080417080769
:103A2000E1D003C0E00023B0003C08002008000003
:103A30001000000000000001000031000032000012
:103A40001C0000000000000000000000000000005A
:103A50000000000000000000000000000000000066
:103A600000000000000000007F0001FFC00780F0A0
:103A70000C001810000420000200000000000020CC
:103A800000021000040C00180780F001FFC0007F46
:103A90000000000000000000000000000000000026
:103AA000000000004200006600006600003C0000CC
:103AB000180003FFC0001800003C0000660000660C
:103AC000000042000000000008000008000008009C
:103AD00000080000080001FFC00008000008000006
:103AE00008000008000008000000000000010000BD
:103AF0003100003200001C00000000000000000047
:103B000000000000000000000000000000000000B5
:103B10000800000800000800000800000800000875
:103B20000000080000080000080000080000000075
:103B300000000000000000003800003800003800DD
:103B40000000000000000000000000000000000075
:103B50000000000000000000000600001C000070D3
:103B6000000180000E0000380000C0000700001CAB
:103B70000000300000000000000000007F8001FF16
:103B8000E00380700600180400080400080600180E
:103B900003807001FFE0007F800000000000000053
:103BA000000001000801000801000803FFF807FFFA
:103BB000F8000008000008000008000000000000F5
:103BC00000000001C03802C0580400980401180425
:103BD0000218040418061C1803F81801E0F8000085
:103BE0000000000000000001C0E003C0F004000875
:103BF00004080804080806180803F41801E7F00090
:103C000001E0000000000000000000000300000DC3
:103C10000000110000610000810803010807FFF89F
:103C20000FFFF8000108000108000000000000007C
:103C300000E007FCD0060808061008061008061069
:103C400008061838060FF00607C000000000000044
:103C5000000000003F8001FFE003843002081804E8
:103C60001008041008041008071810030FF00007CC
:103C7000C000000000000000000003C000070000BA
:103C80000600000600F80607F806180006E0000720
:103C9000000006000000000000000001E1E003F762
:103CA000F0063410041808041808040C08040C0862
:103CB00006161803F3F001C1E00000000000000048
:103CC000F80003FC3003063804020804020804026A
:103CD000080404100308F001FFC0007F000000008A
:103CE00000000000000000000000000000000000D4
:103CF00070380070380070380000000000000000CC
:103D000000000000000000000000000000000000B3
:103D100000000000301A00301C000000000000000D
:103D2000000000000000000000000000000000088B
:103D300000001400002200004100008080010040CB
:103D4000020020040010080008000000000000002D
:103D5000210000210000210000210000210000219D
:103D600000002100002100002100002100000000CF
:103D700000000000000008000804001002002001FC
:103D80000040008080004100002200001400000874
:103D90000000000000000003C00004C00004000098
:103DA000080038080F380808380810000C300007E1
:103DB000E00003C000000000000000003F8000FFA2
:103DC000E0038070020F1006708804C08804830826
:103DD000047F8802C09003012000FE40000008001C
:103DE00000180001F8003E0801C20007020007E2C7
:103DF0000000FE00001FC80001F8000038000008A5
:103E000004000807FFF807FFF8040808040808047E
:103E1000080804080806180803F41801E7F0000170
:103E2000E0000000000000003F8001FFE003807020
:103E3000020018040008040008040008040010062A
:103E400000200780C000000004000807FFF807FFFB
:103E5000F804000804000804000804001802001018
:103E600003807001FFE0007F80000000040008076D
:103E7000FFF807FFF8040808040808040808040805
:103E800008043E0804000806001801006000000055
:103E900004000807FFF807FFF804080804080004F6
:103EA0000800040800043E0006000006000001802F
:103EB00000000000000000003F8001FFE003807070
:103EC0000600180400080402080402080203F007B0
:103ED00083F000020000020004000807FFF807FF5B
:103EE000F8040808000800000800000800000800A6
:103EF00004080807FFF807FFF804000800000000A6
:103F0000000004000804000804000807FFF807FF89
:103F1000F804000804000804000800000000000085
:103F2000000000000006000007000001040001047A
:103F3000000104000307FFFE07FFFC04000004006B
:103F40000004000004000807FFF807FFF8040C084D
:103F5000001800003E0004C7800503C80600F804EE
:103F6000003804001800000804000807FFF807FFE5
:103F7000F80400080000080000080000080000081D
:103F8000000008000018000060000000040008079E
:103F9000FFF807800807FC00007FC00003F8000757
:103FA000C000780007800807FFF807FFF804000842
:103FB00004000807FFF807000803C00000E0000045
:103FC0003800001E000007000001C00400F007FFD9
:103FD000F8040000000000007F8001FFE003807013
:103FE0000600180400080400080600180300300149
:103FF000FFE0007F8000000004000807FFF807FFD3
:10400000F804040804040004040004040004040088
:10401000060C0003F80001F00000000000000000A2
:104020007F8001FFE00380700600880400880400A0
:10403000C806003C03003E01FFE6007F840000004C
:1040400004000807FFF807FFF80408080408000444
:104050000C00040F00040BC00610F003F03801E060
:104060000800000800000001E0F803F030063010FE
:10407000041808041808040C08040C0802061802A6
:1040800007F00781E0000000018000060000040046
:104090000004000004000807FFF807FFF804000808
:1040A0000400000400000600000180000400000776
:1040B000FFE007FFF00400180000080000080000FF
:1040C0000800000800000804001007FFE0040000DA
:1040D00004000006000007E00007FE00041FE000E7
:1040E00001F80000380001E0043E0007C0000600AF
:1040F0000004000004000007E00007FFC0041FF8F0
:104100000007C007F80007FF80043FF80007C0045D
:10411000F80007000004000000000004000806008A
:104120001807C07805F1C8003E00001F800463E84E
:104130000780F806001804000800000004000006CC
:10414000000007800007E008047C08001FF8000753
:10415000F800180804E0080700000600000400004A
:104160000000000100080600380400F80403E80419
:104170000F08047C0805F00807C0080700180400B1
:1041800060000000000000000000000000000000CF
:104190000000003FFFFE200002200002200002205D
:1041A00000022000020000000000000000000800E3
:1041B0000007000000C0000038000006000001C039
:1041C00000003000000E00000100000000000000B0
:1041D0000000200002200002200002200002200037
:1041E000023FFFFE00000000000000000000000091
:1041F0000000000000000000000800001000003077
:104200000000200000300000100000080000000046
:10421000000000000000010000010000010000019A
:104220000000010000010000010000010000010089
:10423000000100000100000100000000000000007B
:10424000002000002000001000001000000000000E
:10425000000000000000000000000000000000005E
:1042600000F00019F8001B1800220800260800249E
:1042700008002410003FF8001FF800000800001894
:1042800000000004000007FFF80FFFF000181800FE
:104290001008002008002008003018001FF0000F50
:1042A000C00000000000000007C0001FF000183030
:1042B000002008002008002008003C08001C100016
:1042C00000600000000000000000000007C0001FA8
:1042D000F000381800200800200800200804101002
:1042E00007FFF80FFFF000001000000000000000C2
:1042F00000000007C0001FF000123000221800224A
:1043000008002208003208001E10000E20000000E5
:1043100000000000200000200800200801FFF80332
:10432000FFF80620080420080420080720000300E6
:104330000000000000000000000E000E6E001FF3E1
:104340000031B10020B10020B1003191001F1300F5
:104350002E1E00200E00300000000004000807FFA1
:10436000F80FFFF8001008002000002000002008CF
:10437000003FF8001FF800000800000000000000E7
:104380000000002008002008002008063FF8063F33
:10439000F80000080000080000080000000000000D
:1043A00000000000000000000300000300200100E6
:1043B0002001002003063FFE063FFC000000000035
:1043C0000000000000000004000807FFF80FFFF8DD
:1043D000000188000300002FC00038F800203800DA
:1043E0002008000008000000000000000000040099
:1043F0000804000804000807FFF80FFFF800000891
:104400000000080000080000000000000020080074
:104410003FF8003FF8001008002000003FF8003F80
:10442000F8001008002000003FF8003FF8000008E6
:10443000000000002008003FF8003FF800100800CE
:104440001000002000002008003FF8001FF80000C6
:10445000080000000000000007C0000FF000183046
:104460000030080020080020080030080018300044
:104470000FF00007C0000000000000002001003F16
:10448000FF003FFF00101100200900200800200855
:10449000003038001FF0000FC000000000000000D6
:1044A00007C0001FF0003818002008002008002076
:1044B00009001011001FFF003FFF00000100000075
:1044C000002008002008002008003FF8003FF80006
:1044D000080800100800200800200000300000300C
:1044E00000000000000000000000000C78001E1812
:1044F00000330800230800210800218800219800CB
:1045000030F00038600000000000000020000020B3
:104510000000200000FFF003FFF800200800200842
:104520000020080000300000000000000000000033
:104530002000003FF0007FF8000018000008000095
:1045400008002010003FF8007FF00000100000007D
:10455000000000002000003000003C00003F800010
:1045600023F0000078000070002380003C00003041
:1045700000002000002000003C00003FE00023F885
:104580000000E0002700003E00003FE00021F800AE
:1045900001E0003E00002000000000002008002094
:1045A00008003838003E680027800003C8002CF857
:1045B000003838002018002008000000000000002B
:1045C0002000003003003C01003F830023EC00008A
:1045D00070002380003C000020000020000000004C
:1045E0000000000000000038080020380020F8001B
:1045F00023E8002F88003E0800380800201800003B
:10460000700000000000000000000000000000003A
:104610000000000008000014001FF7FC3000062016
:104620000002000000000000000000000000000088
:1046300000000000000000000000FFFFFF0000007D
:10464000000000000000000000000000000000006A
:1046500000002000023000061FF7FC0014000008D4
:10466000000000000000000000000000000000004A
:104670000000001800006000004000004000002022
:1046800000001000000800000400000400000C00FE
:1046900000100000B446000800000020341600009E
:1046A000AA080008084A0008341600204C09000037
:1046B0007C2200085184A24A04200A010203040655
:1046C00007080902180E1010D0FF9014E4AFA4A43C
:1046D000A4AFE42113040312FF180B894B2A1A0E0E
:1046E0001A2A4B8880202A900120091010FF1010F0
:1046F00011161010082060203F10101027030C1016
:104700002040F82FFE02424ACA4A03344202FE40C9
:104710000EFF40504C4340404F50505C40FF1BF850
:1047200088012AFF05192E311B1F08012A7F10144A
:104730009F80F03B8082016009E2A2928A8682809B
:10474000808440807F172424A4FEA3221B22CC5AFD
:104750004115080601FF2B0104011DFF020202A002
:10476000199A5B900863120810100444827F01803C
:104770008040432C102846818019281E84E43C2761
:1047800024011AE40C11140402011BFF09014B4916
:10479000896415FE225A862BFE920129BF111DFF46
:1047A000040807C5200820030C142241401780404C
:1047B000201806802D071820409E1201100B207033
:1047C00028262120202438602301013B10123C3D83
:1047D0009212120240211A3F946B103FC51D806057
:1047E000F8074318080F08C8080828184019C82CEB
:1047F000100C031E1C010618C015F01F10F0100944
:10480000808282E2928A86802740221508166159AA
:104810003E0113C358381A20D9200CFE2322202031
:10482000FF20222CA020280A0848847F0241402033
:1048300013C042F84B7F49013951280A8141211D9B
:10484000214181FF8901138181300F4454547F54E9
:104850005444202827E4342CE016FF1555957F108A
:10486000090949897F09091F01161060020CC0104F
:104870000AF8888888FF8888A818181004047C0320
:1048800080601F80432C1028468180C019011AFFC8
:10489000C617101116D010101A80EC100C0641200B
:1048A000103F444241404078180902020AEAAAAA8D
:1048B000AAAF0415EA0A02021010824A2A1E0B4A05
:1048C0008A7A02FA4B4A4AFA02101008F7145494F2
:1048D00014F40480708F0808F808180A1D13115585
:1048E00099513F9141C10413334080C3583820107F
:1048F00020242424FE23222020FF20222CA0201864
:10490000080848847F0241403F15142241F82010D6
:1049100080642C342424EC322222322E23A260180C
:104920000E41219189874D552525554D8180601D6A
:104930008060F807B410080F08C80808281822017A
:1049400012FF17100C0340807F440106184BC080F3
:10495000014BFC84080336C0C03CFF7F40014AFF86
:1049600007043E40FF7F034A7F700373FCF86CFF2F
:10497000FE02018BFFFF0B0268036C1F1F04017B0B
:10498000FFFF0B02741F038C7F3F07FFF8F8F0F066
:10499000702001E60214801AFF0109122C09132D60
:1049A00001FF01C0EDFFFFFE06011AFF01F91539F5
:1049B0001603FF070201D10C12FFFFFF14091015A7
:1049C00009151601FF01C1EDFFFFFF1801191409B8
:1049D0001015391601FF01D204120201011AFF015C
:1049E000011209122A01FF01D71AFF0101FF01FD7F
:1049F00005FF1F1F0F0F01E72D0102030404A0098B
:084A000006070809020406087C
:04000005080000ED02
:00000001FF
