:020000040800F2
:10000000981F002001010008390600087F0500083C
:1000100035060008E3030008AB17000800000000E5
:10002000000000000000000000000000250C000897
:10003000E7030008000000008D0A0008850D000895
:100040001B0100081B0100081B0100081B01000820
:100050001B0100081B0100081B0100081B01000810
:100060001B0100081B0100081B0100081B01000800
:100070001B0100081B0100081B0100081B010008F0
:100080001B0100081B0100081B0100081B010008E0
:100090001B0100081B0100081B0100081B010008D0
:1000A0001B010008E90D00081B0100081B010008E6
:1000B0001D0E00087D0F00081B0100081B01000831
:1000C0001B0100081B0100081B0100081B010008A0
:1000D0001B0100081B0100081B010008CD120008CD
:1000E0001B0100081B0100081B010008DFF80CD0F1
:1000F00000F03CF800480047A51A0008981F0020AF
:100100000648804706480047FEE7FEE7FEE7FEE7B1
:10011000FEE7FEE7FEE7FEE7FEE7FEE7890D0008E3
:10012000ED00000810B5002200E0521C835C8C5CDE
:10013000A34201D1002BF8D1D8B2E1B2401A10BDD0
:1001400030B50B46014600202022012409E021FAA7
:1001500002F59D4205D303FA02F5491B04FA02F5A4
:100160002844151EA2F10102F1DC30BD064C074DFA
:1001700006E0E06840F0010394E807009847103477
:10018000AC42F6D3FFF7B6FF94320008B432000851
:1001900070B58C1810F8015B15F0070301D110F849
:1001A000013B2A1106D110F8012B03E010F8016B76
:1001B00001F8016B5B1EF9D12B0705D40023521EF9
:1001C0000DD401F8013BFAE710F8013BCB1A921C61
:1001D00003E013F8015B01F8015B521EF9D5A1425F
:1001E000D8D3002070BD21B1826842F00102826044
:1001F00003E0826822F001028260704710B5044675
:100200001248844208D10121401500F06DFC002104
:10021000601500F069FC17E00D48844208D1012107
:10022000001500F061FC0021201500F05DFC0BE0E2
:100230000848844208D10121C80300F055FC002180
:100240004FF4004000F050FC10BD000000240140BD
:1002500000280140003C0140014600208A6802F06D
:1002600004020AB1012000E0002070470146C86C7A
:1002700080B270470246002013680B400BB101208A
:1002800000E000207047014600208A6802F0080262
:100290000AB1012000E000207047000030B502469E
:1002A0000020002350680F4C20400D790C6844EA70
:1002B00005242043506090680B4C2040D1E9025443
:1002C0002C434D7944EA450420439060D06A20F4E1
:1002D00070000C7C641EE4B2234340EA0350D062F9
:1002E00030BD0000FFFEF0FFFDF7F1FFF0B5044662
:1002F0000D4600200021092D11DDE068A5F10A0658
:1003000006EB4607072606FA07F18843A5F10A0619
:1003100006EB460603FA06F10843E0600CE02069AC
:1003200005EB4507072606FA07F1884305EB450666
:1003300003FA06F108432061072A0FDA606B561EA4
:1003400006EB86071F2606FA07F18843561E06EBC2
:10035000860605FA06F10843606322E00D2A0FDAEB
:10036000206BD61F06EB86071F2606FA07F1884387
:10037000D61F06EB860605FA06F10843206310E057
:10038000E06AA2F10D0606EB86071F2606FA07F1C2
:100390008843A2F10D0606EB860605FA06F108432E
:1003A000E062F0BD816841F008018160704721B1D1
:1003B000826842F4A002826003E0826822F4A00214
:1003C00082607047816841F004018160704770B5B8
:1003D00005460C46284600F005F9204600F0FEFBD5
:1003E00070BD00BFFEE770472DE9F04102460025D1
:1003F0000026002000230024002791F803C00CF001
:100400000F0591F803C00CF0100CBCF1000F03D0E5
:1004100091F802C04CEA050591F800C0BCF1000F4C
:1004200031D0146800202BE04FF0010C0CFA00F3DF
:10043000B1F800C00CEA03069E4220D183004FF0C1
:100440000F0C0CFA03F7BC4305FA03FC4CEA040456
:1004500091F803C0BCF1280F06D14FF0010C0CFA43
:1004600000FCC2F814C00AE091F803C0BCF1480FC8
:1004700005D14FF0010C0CFA00FCC2F810C0401C72
:100480000828D1D31460B1F800C0BCF1FF0F34DDEF
:10049000546800202EE000F1080C4FF0010808FA23
:1004A0000CF3B1F800C00CEA03069E4221D1830090
:1004B0004FF00F0C0CFA03F7BC4305FA03FC4CEAAF
:1004C000040491F803C0BCF1280F05D100F1080C19
:1004D00008FA0CF8C2F8148091F803C0BCF1480F78
:1004E00007D100F1080C4FF0010808FA0CF8C2F827
:1004F0001080401C0828CED35460BDE8F0814161D3
:10050000704701617047000010B5044607230122BF
:1005100021460948FFF7EAFE01210748FFF747FF98
:1005200000BF02210448FFF7A5FE0028F9D00248C9
:10053000FFF79CFE10BD0000002401402DE9F041B2
:1005400007460C460025002608E03846FFF7DCFF8A
:100550000544052001F066FA701CC6B2A642F4DB21
:10056000B5FBF4F080B2BDE8F08170B505460C46ED
:10057000284600F04BF8204600F042FB70BD00BF5B
:10058000FEE7000010B580210748FFF7BAFF2021E1
:100590000548FFF7B6FF80210348FFF7B0FF202191
:1005A0000148FFF7ACFF10BD0008014010B5202145
:1005B0000548FFF7A6FF80210348FFF7A0FF802131
:1005C0000148FFF79EFF10BD0008014010B5202133
:1005D0000348FFF796FF20210148FFF790FF10BD69
:1005E0000008014010B5044640210648FFF787FF88
:1005F00080210448FFF785FFA1B2034800F0BFFD4A
:1006000010BD0000000C01400008004010B5044679
:1006100040210648FFF775FF80210448FFF76FFF70
:10062000A1B2034800F0ABFD10BD0000000C01407A
:100630000008004000BFFEE77047000070B50021D1
:1006400000230F22C47804B3154C246804F4E0643A
:10065000C4F5E064210AC1F10403CA40447804FAF5
:1006600003F184781440214309010E4C0678A1550A
:10067000047804F01F050124AC4005786D11AD002D
:1006800005F1E025C5F8004109E0047804F01F05F4
:100690000124AC40044D0678761145F8264070BD23
:1006A0000CED00E000E400E080E100E070B5002423
:1006B0000CE0002506E00020074901EBC5010855C4
:1006C000681CC5B2802DF6DB601CC4B2082CF0DBC0
:1006D00000F05EF870BD00001417002070B50B46E6
:1006E000CE1701EB5676C6F3C702CE1701EB56764E
:1006F000F610A1EBC606F4B20123A340DDB20E4B07
:1007000003EBC0039B5CDB430B4E06EBC006B3540C
:10071000094B03EBC0039B5C2B43074E06EBC00663
:10072000B354054B03EBC0039B5CDB43024E06EB6B
:10073000C006B35470BD00001417002070B50A46FF
:10074000CE1701EB5676C6F3C703CE1701EB5676EC
:10075000F610A1EBC606F4B20122A240D5B2054ABA
:1007600002EBC002D25C2A43024E06EBC006F254F2
:1007700070BD00001417002010B50246012000E0F3
:1007800050430B1EA1F10104E1B2F9D110BD0000EC
:1007900070B500241CE004F1B001C8B2002100F0E3
:1007A00059F90021084600F055F90021102000F009
:1007B00051F9002508E0084901EBC501085D012158
:1007C00000F048F9681CC5B2802DF4DB601CC4B28F
:1007D000082CE0DB70BD0000141700202DE9FF4F4E
:1007E00081B080460E461C4600962046E31704EB77
:1007F0005373DB1021464FEAE47C04EB5C7C4FEA48
:10080000EC0CA4EBCC0CBCF1000F02D04FF0010CAF
:1008100001E04FF0000C6344224604EBD27C4FEA27
:100820006C0C03FB0CF303F0FF0B03982038C7B2EA
:10083000002547E00C2C07D107EB4700234901EBCB
:10084000800010F805A014E0102C05D1204800EB22
:10085000071010F805A00CE0182C07D107EBC70013
:100860001C4901EB800010F805A002E005B0BDE8CE
:10087000F08F4FF000091FE00AF0800020B13146F0
:100880004046FFF75BFF03E031464046FFF726FF97
:100890004FEA4A604FEA106A701CC6B20098301ADC
:1008A000A04205D1009E08F1010000F0FF0806E01B
:1008B00009F1010000F0FF09B9F1080FDCDB00BF0E
:1008C000681CC5B25D45B5DB00BFCFE7D41A000890
:1008D000481F0008382500082DE9FF4F07468846C5
:1008E00091461C464FF0000B0297CDF8048020463D
:1008F000E11704EB5171C1F3C701009160E009FBFE
:1009000004F0C11700EB51710BEBE101CEB20BF11A
:10091000010000F0FF0B002550E0102C05D12C4801
:1009200000EB0610405D03901BE0182C07D106EB8E
:10093000C600284901EBC000405D039011E0202C67
:1009400005D1254800EBC610405D039009E0402C1E
:1009500005D1224800EB4620405D039001E0BDE850
:10096000FF8F4FF0000A17E0039800F0010020B15C
:1009700041463846FFF7E2FE03E041463846FFF7BE
:10098000ADFE03984010039008F1010000F0FF084D
:100990000AF1010000F0FF0ABAF1080FE4DB781C4D
:1009A000C7B20298381AA04204D1029F01980830B9
:1009B000C0B20190DDF80480681CC5B2A542ACDB72
:1009C0000098411EC9B20091002898D100BFC6E727
:1009D00033000020530300202B0400202B060020AE
:1009E0002DE9F04F06468A4691461F46099C002590
:1009F0002CE0781B401EC1B20A20FFF7BDFEB9FBF8
:100A0000F0F00A21B0FBF1F201FB1208B8F1000F7F
:100A10000CD1A34604EBDB71491001FB0561C8B2A0
:100A2000234630225146FFF7D9FE0DE0A34604EBE2
:100A3000DB71491001FB0561C8B208F13001CAB28F
:100A400023465146FFF7CAFE681CC5B2BD42D0DB43
:100A5000BDE8F08F70B505460C46FFF793FD782092
:100A600000F0E2F8FFF7B2FD1CB1402000F0DCF826
:100A700002E0002000F0D8F8FFF7A8FD284600F0BB
:100A8000D3F8FFF7A3FDFFF791FD70BD704700009D
:100A900001460020034A506820F44040084350605B
:100AA000704700000010024029B1064AD269024393
:100AB000044BDA6104E0034AD2698243014BDA61F4
:100AC000704700000010024029B1064A92690243B3
:100AD000044B9A6104E0034A92698243014B9A6194
:100AE000704700000010024029B1064AD268024354
:100AF000044BDA6004E0034AD2688243014BDA60B7
:100B0000704700000010024030B500210022002490
:100B100000232D4D6D6805F00C0121B1042905D08D
:100B2000082923D105E0294D056022E0274D056005
:100B30001FE0254D6D6805F47012234D6D6805F4B6
:100B40008034022505EB92421CB9214D55430560C6
:100B50000BE01D4D6D6805F400351DB11C4D55436E
:100B6000056002E0194D5543056002E0174D056030
:100B700000BF00BF144D6D6805F0F0010909154D67
:100B80006B5C0568DD4045600F4D6D6805F4E06104
:100B9000090A104D6B5C4568DD4085600A4D6D6843
:100BA00005F46051C90A0B4D6B5C4568DD40C560BA
:100BB000054D6D6805F44041890B074D6B5CC568B8
:100BC000B5FBF3F5056130BD0010024000127A005C
:100BD00000093D002E1600203E16002010B50446E8
:100BE00002210648FFF78BFC04210448FFF789FC2B
:100BF000A1B24FF0804000F0C0FA10BD00080140E3
:100C000010B5044602210648FFF77BFC0421044886
:100C1000FFF775FCA1B24FF0804000F0AEFA10BDB6
:100C2000000801407047000070B5044600251BE035
:100C300020210F48FFF763FC04F0800020B18021E1
:100C40000B48FFF75EFC03E080210948FFF757FCE3
:100C500020210748FFF755FC20210548FFF74FFCEE
:100C60006006040E681CC5B2082DE1DB70BD0000F3
:100C70000008014010B500F001F810BD0CB50020CF
:100C8000019000903348006840F48030314908609A
:100C900000BF3048006800F4003000900198401C0C
:100CA0000190009818B90198B0F5A06FF1D12948CA
:100CB000006800F4003010B10120009001E0002035
:100CC00000900098012843D12348006840F01000AC
:100CD000214908600846006820F0030008600846C3
:100CE000006840F0020008601A48406819494860EE
:100CF0000846406848600846406840F480604860A4
:100D00000846406820F47C1048600846406840F47B
:100D1000E81048600846006840F08070086000BF36
:100D20000C48006800F000700028F9D009484068BD
:100D300020F00300074948600846406840F0020080
:100D4000486000BF0348406800F00C000828F9D153
:100D50000CBD00000010024000200240042808D111
:100D60004FF0E021096941F004014FF0E0221161E8
:100D700007E04FF0E021096921F004014FF0E02283
:100D8000116170477047000010B51348006840F0CB
:100D900001001149086008464068104908400E49A2
:100DA0004860084600680E4908400B49086008463C
:100DB000006820F4802008600846406820F4FE00A7
:100DC00048604FF41F008860FFF754FF4FF0006049
:100DD0000449086010BD0000001002400000FFF848
:100DE000FFFFF6FE08ED00E010B50121064800F017
:100DF000F4F8012806D105A000F0DAFC0121024830
:100E000000F0DCF810BD0000002C014068656C6C3F
:100E10006F776F726C643131310D0A0010B50121AA
:100E2000880700F0DAF801280ED108A000F0C0FC15
:100E30000A48006808B9012000E00020074908605E
:100E40000121880700F0BAF810BD000068656C6CDD
:100E50006F776F726C640D0A00000000B4012242CB
:100E60007FB505460C4601210846FFF71DFEADF88B
:100E70000850ADF804400020ADF80600ADF80A00B7
:100E800001A94FF0804000F07DF901221146900742
:100E900000F0B4F80BA000F08BFC1C208DF80000D3
:100EA00001208DF803008DF801008DF802006846DE
:100EB000FFF7C4FB0121880700F083F801A000F0D0
:100EC00077FC7FBD68656C6C6F776F726C640D0A20
:100ED0000000000030B589B005460C460121042011
:100EE000FFF7F2FD01210846FFF7DEFD0120ADF816
:100EF000200018208DF8230003208DF8220008A977
:100F00001D48FFF771FAADF81850ADF814400020F5
:100F1000ADF81600ADF81A0005A94FF0804000F0BA
:100F200031F97020ADF804000220ADF80C0001206A
:100F3000ADF806000020ADF80A0001A94FF080408E
:100F400000F0BCF801A94FF0804000F061F80021EA
:100F50004FF0804000F0A8F800214FF0804000F0F2
:100F6000FFF80121880700F01DF80121880700F033
:100F700028F809B030BD00000008014010B501217B
:100F8000064800F02AF840B10121044800F016F8A4
:100F900003480088401C0249088010BD000400403E
:100FA0002C16002021B1028842F08002028004E069
:100FB00002884FF67F731A4002807047CA4302824C
:100FC000704721B1028842F00102028004E00288E9
:100FD0004FF6FE731A400280704730B5024600207B
:100FE00000230024158A05EA0103958905EA010416
:100FF00013B10CB1012000E0002030BD1AB183898B
:101000000B43838102E083898B4383817047000017
:1010100070B5002400220023058C4FF6FE76354083
:101020000584028C8388048B4FF68F752C40B51E87
:101030002C400D882C43751E2A400D892A434D886B
:101040002A43144DA8420BD0134DA84208D0134D8B
:10105000A84205D0124DA84202D0124DA84213D189
:101060004FF6F7752A404D892A434FF6FB752A4003
:101070008D882A434FF6FF652B404FF6FF552B40D6
:101080008D892B43CD892B4383800483CD8885862E
:10109000028470BD002C014000340140004001403A
:1010A00000440140004801400A460021018B4FF6F0
:1010B000F7731940114301837047000070B5002495
:1010C00000220023058C4FF6EF7635400584028C14
:1010D0008388048B48F6FF752C404FF6FF452C4063
:1010E0000D884FF6FF7606EA05252C434FF6DF758F
:1010F0002A400D8906EA05152A434D8806EA05159A
:101100002A43154DA84202D0144DA8421DD14FF6D6
:101110007F752A404D894FF6FF7606EA05152A436A
:101120004FF6BF752A408D8806EA05152A434FF60B
:10113000FF352B404FF2FF752B408D8906EA850560
:101140002B43CD8906EA85052B4383800483CD8814
:101150000587028470BD0000002C0140003401406E
:101160000A460021018B4FF2FF7319404FF6FF73BF
:1011700003EA022319430183704781867047818700
:1011800070470000002202881D4B98420ED01D4B74
:1011900098420BD0B0F1804F08D01B4B984205D03D
:1011A0001A4B984202D01A4B984204D14FF68F73D3
:1011B0001A404B881A43174B984207D0164B984257
:1011C00004D04FF6FF431A40CB881A4302808B8825
:1011D00083850B8803850A4B98420BD0094B9842B4
:1011E00008D00E4B984205D00D4B984202D00D4BC3
:1011F000984201D10B7A0386012383827047000055
:10120000002C014000340140000400400008004070
:10121000000C00400010004000140040004001405D
:10122000004401400048014070B505460C46284680
:10123000FFF7ECF92046FFF7E3FC70BD70B50546FB
:101240000C462846FFF7E2F92046FFF7D9FC70BDAF
:1012500000B585B0012144F20400FFF735FC4FF4DE
:101260000070ADF8100018208DF8130003208DF8E1
:10127000120004A91348FFF7B7F84FF48060ADF8E7
:10128000100004208DF8130004A90E48FFF7ACF8F5
:101290004FF4E13000900020ADF80400ADF80600F6
:1012A000ADF80800ADF80C000C20ADF80A00694656
:1012B000054800F005FA0121034800F0BDF905B02A
:1012C00000BD0000000801400038014038B540F280
:1012D0002551A44800F0C9F900283DD0A14800F0EC
:1012E0005BFAC4B2A0480078012830D1572C08D14D
:1012F00057209E4908704FF496710846FFF735F95C
:1013000025E0532C08D15320984908704FF496716A
:101310000846FFF75CF81AE0412C08D141209349B8
:1013200008704FF4C8719620FFF77EFF0FE0442C41
:1013300008D144208D49087096214FF4C870FFF7FA
:101340007DFF04E0432C02D1432088490870232C00
:1013500003D101208649087003E1452C72D18549EB
:1013600085A0FEF7DFFE18B901207F490870B7E0BD
:10137000804983A0FEF7D6FE18B902207A4908708A
:10138000AEE07C4980A0FEF7CDFE18B90320764977
:101390000870A5E077497EA0FEF7C4FE28B97F4813
:1013A0000078401C7D4908709AE072497CA0FEF7E5
:1013B000B9FE28B979480078401E784908708FE056
:1013C0006C497AA0FEF7AEFE28B97B480078401C35
:1013D0007949087084E0674978A0FEF7A3FE28B930
:1013E00075480078401E7449087079E0614976A01C
:1013F000FEF798FE28B978480078401C76490870B6
:101400006EE05C4975A0FEF78DFE28B97248007841
:10141000401E7149087063E0564974A0FEF782FED1
:1014200028B976480078401C7449087058E0514942
:1014300073A0FEF777FE30B970480078401E6F4900
:1014400008704DE07BE04B4971A0FEF76BFE70B970
:101450007148006800F57A706F4908606F4A128819
:1014600091B26D4A128890B2FFF734FD38E04149DD
:101470006BA0FEF757FE70B967480068A0F57A7058
:1014800065490860654A128891B2634A128890B231
:10149000FFF720FD24E0374963A0FEF743FE68B95B
:1014A0005E4800680A305D4908600A46128891B2B9
:1014B000594A128890B2FFF70DFD11E02D495CA04A
:1014C000FEF730FE60B9554800680A385349086095
:1014D0000A46128891B2504A128890B2FFF7FAFC7D
:1014E00000202349087009E000202249204A127890
:1014F00088541F480078401C1D4908701C4800781B
:101500002028F1DB00201A490870FFF7CFF81023DC
:10151000002214212420FFF7DFF9102301221421D7
:101520003620FFF7D9F91020012300900E480278E9
:1015300014214820FFF754FAFFF72AF911E00C486C
:10154000007800280DDD0A480078C82809DC084822
:101550000078401E07490C5405480078401C044997
:10156000087038BD004800403000002032000020E4
:10157000310000204C1600206D6F646531000000C2
:101580006D6F6465320000006D6F646533000000AC
:1015900074656D705F6D61782B2B00000A00002070
:1015A00074656D705F6D61782D2D000074656D70D0
:1015B0005F6D696E2B2B00000B00002074656D7051
:1015C0005F6D696E2D2D000064697374616E745FC8
:1015D0006D61782B2B000000180000206469737483
:1015E000616E745F6D61782D2D0000006469737405
:1015F000616E745F6D696E2B2B0000001900002076
:1016000064697374616E745F6D696E2D2D000000E6
:101610006172722B2B0000000C00002010000020D3
:101620006172722D2D0000007073632B2B0000007F
:101630007073632D2D00000021B1828942F40052A5
:10164000828104E082894DF6FF731A4082817047DF
:1016500002460020B1F5007F00D100BF13880B4087
:101660000BB1012000E00020704770B50246002455
:1016700000230025002040F66A16B14200D100BFC9
:10168000C1F3421501F01F03012606FA03F3012DF1
:1016900002D19689334006E0022D02D1168A3340EA
:1016A00001E0968A33400C12012606FA04F41688EB
:1016B000344013B10CB1012000E0002070BD0000E7
:1016C0002DE9F04786B005460E460024A24600BF2D
:1016D000A1460027B08900B100BF2F462C8A4CF6E6
:1016E000FF700440F08804432C82AC894EF6F3105E
:1016F0000440B08831890843718908430443AC81B0
:10170000AC8A4FF6FF400440B0890443AC8201A884
:10171000FFF7FAF91F48874202D1DDF810A001E077
:10172000DDF80CA0A88900F4004040B10AEBCA0023
:1017300000EB0A1031684900B0FBF1F807E00AEB52
:10174000CA0000EB0A1031688900B0FBF1F8642090
:10175000B8FBF0F004012009642101FB1089A8897D
:1017600000F4004040B1322000EBC900B0FBF1F0C2
:1017700000F00700044308E0322000EB0910642168
:10178000B0FBF1F000F00F0004432C8106B0BDE87F
:10179000F08700000038014001468888C0F3080047
:1017A0007047C1F308028280704700BFFEE7000067
:1017B0000FB4054B10B503A9044A029800F018F8BD
:1017C00010BC5DF814FB0000711A000848160020D8
:1017D00002E008C8121F08C1002AFAD170477047FA
:1017E000002001E001C1121F002AFBD17047000058
:1017F0002DE9FF4F89B09B460446002506E02528C9
:101800000BD05A460B999047641C6D1C2078002819
:10181000F5D10DB02846BDE8F08F0027B84601226B
:10182000474900E0074314F8013F203B02FA03F068
:101830000842F7D120782E2819D114F8010F47F06B
:1018400004072A280ED06FF02F022078A0F1300173
:1018500009290CD808EB880102EB410100EB0108D3
:10186000641CF2E70A98641C50F8048B0A902078F4
:101870000028CED0642808D0692806D075281ED04C
:101880005A460B9990476D1C58E00A994FF00A0987
:1018900001C90A91002802DA40422D2102E03905EF
:1018A00004D52B218DF82010012103E0F90704D085
:1018B0002021F7E78A4608AE0DE00021FAE70A99F1
:1018C0004FF00A0901C90A91F7E74946FEF738FCCB
:1018D000303106F8011D0028F7D1ADEB060000F10C
:1018E0002009780701D44FF00108C84502DDA8EBB4
:1018F000090000E000208046002706E008A85A46BC
:10190000C05D0B9990476D1C7F1C5745F6DB04E0CA
:1019100030205A460B9990476D1CB8F10001A8F190
:101920000108F5DC05E016F8010B5A460B999047C3
:101930006D1CB9F10001A9F10109F4DC641C65E733
:101940000928010000B587B001210420FFF7BCF889
:1019500001214802FFF7B8F80120ADF81800002077
:101960008DF81B0006A91C48FEF73EFD4FF4004011
:10197000FFF78EF81948FEF741FC002001908DF822
:1019800008008DF809004FF46020039000200490B7
:1019900001208DF8140001A91048FEF77FFC0121F9
:1019A0000E48FEF720FC0D48FEF7FCFC00BF0B487C
:1019B000FEF769FC0028FAD10848FEF703FD00BFD6
:1019C0000648FEF749FC0028FAD101210348FEF73A
:1019D000EEFC07B000BD00000008014000240140FB
:1019E00010B56FF00400FFF7B9F90A4800680A491A
:1019F000B0FBF1F0094908700846007800EB40019F
:101A0000C1EBC0104FF6FF7101EAC0000449088025
:101A100010BD00001C00002000127A0042160020B9
:101A2000441600200146114A12884A434FF0E02331
:101A30005A6100229A611A46126942F001021A6143
:101A400000BF4FF0E022106900F001021AB100F46B
:101A50008032002AF5D04FF0E022126922F0010214
:101A60004FF0E0231A6100229A617047441600206B
:101A700070B504460D46E1B20948FFF792FE00BF7B
:101A80000748008800F080000028F9D000BF4021FE
:101A90000348FFF7DDFD0128F9D1204670BD0000A5
:101AA00000380140FFF7D4FB41F61F4142F20F70AE
:101AB000FFF7D6F900BFFFF793FFFFF743FF08E0FA
:101AC0000A210020FEF73AFD04464FF49670FFF716
:101AD000A9FFF5E700000000000000000000000082
:101AE000000000003F400000000000000000300047
:101AF000400030004000000009000BC03D000BC05A
:101B00003D00090018C024407FE0224031800000E1
:101B1000180024C01B000D803240018003801C404F
:101B200027401C80074000401000600000000000BB
:101B3000000000000000000000001F802040402046
:101B40000000402020401F80000000000900060027
:101B50001F80060009000000040004003F8004000C
:101B60000400000000100060000000000000000001
:101B70000400040004000400040000000000004011
:101B80000000000000000000002001C00600380036
:101B9000400000001F802040204020401F800000A7
:101BA000000010403FC000400000000018C021406D
:101BB000224024401840000010802040244024404F
:101BC0001B80000002000D0011003FC0014000001A
:101BD0003C80244024402440238000001F80244077
:101BE00024403440038000003000200027C038002B
:101BF000200000001B802440244024401B80000063
:101C00001C0022C0224022401F8000000000000073
:101C10000840000000000000000000000460000018
:101C200000000000000004000A0011002080404075
:101C300009000900090009000900000000004040F7
:101C4000208011000A000400180020002340240016
:101C5000180000001F802040274029401F4000003E
:101C6000004007C039000F0001C0004020403FC0C5
:101C7000244024401B8000001F8020402040204042
:101C80003080000020403FC0204020401F800000E6
:101C900020403FC024402E4030C0000020403FC0C4
:101CA00024402E00300000000F0010802040224011
:101CB0003380020020403FC0040004003FC02040A9
:101CC000204020403FC020402040000000602020F5
:101CD00020203FC02000200020403FC024400B00B7
:101CE00030C0204020403FC020400040004000C0A5
:101CF0003FC03C0003C03C003FC0000020403FC04C
:101D00000C4023003FC020001F8020402040204086
:101D10001F80000020403FC0244024001800000025
:101D20001F802140214020E01FA0000020403FC034
:101D30002440260019C0004018C0244024402240FE
:101D400031800000300020403FC0204030000000C3
:101D500020003F80004000403F80200020003E00E7
:101D600001C0070038002000380007C03C0007C051
:101D700038000000204039C0060039C02040000073
:101D80002000384007C0384020000000304021C00B
:101D90002640384020C00000000000007FE04020C6
:101DA00040200000000070000C0003800040000094
:101DB0000000402040207FE00000000000002000E4
:101DC0004000200000000000001000100010001073
:101DD00000100010000000004000000000000000A3
:101DE000000002800540054003C0004020003FC0C5
:101DF00004400440038000000000038004400440CD
:101E00000640000000000380044024403FC0004022
:101E1000000003800540054003400000000004402E
:101E20001FC0244024402000000002E0055005505F
:101E30000650042020403FC00440040003C000407E
:101E40000000044027C00040000000000010001007
:101E5000041027E00000000020403FC001400700C0
:101E600004C00440204020403FC00040004000002B
:101E700007C0040007C0040003C00000044007C0FE
:101E80000440040003C000400000038004400440FC
:101E900003800000041007F0045004400380000099
:101EA000000003800440045007F00010044007C005
:101EB0000240040004000000000006400540054008
:101EC00004C00000000004001F8004400040000027
:101ED000040007800040044007C0004004000700E1
:101EE00004C0018006000400060001C0070001C014
:101EF00006000000044006C0010006C004400000C7
:101F00000410071004E001800600040000000440F3
:101F100005C00640044000000000000004007BE013
:101F200040200000000000000000FFF00000000062
:101F3000000040207BE00400000000004000800022
:101F400040002000200040000000000000000000D1
:101F500000000000000000000000000000001FCC96
:101F6000000C0000000000000000080030006000CD
:101F70000800300060000000022003FC1E20022048
:101F800003FC1E200220000000000E1811043FFF79
:101F900010840C78000000000F0010840F3800C07F
:101FA000077818840078000000780F8410C411248A
:101FB0000E9800E40084000808006800700000002B
:101FC000000000000000000000000000000007E02A
:101FD00018182004400200000000400220041818D5
:101FE00007E00000000000000240024001800FF006
:101FF00001800240024000000080008000800FF855
:1020000000800080008000000001000D000E000034
:102010000000000000000000000000800080008040
:1020200000800080008000800000000C000C000098
:102030000000000000000000000000060018006022
:102040000180060018002000000007F008081004B6
:102050001004080807F000000000080408041FFC32
:10206000000400040000000000000E0C10141024F6
:10207000104411840E0C000000000C181004110410
:10208000110412880C700000000000E003200424FA
:1020900008241FFC0024000000001F981084110475
:1020A0001104108810700000000007F00888110467
:1020B000110418880070000000001C00100010FCC3
:1020C00013001C001000000000000E3811441084A2
:1020D000108411440E38000000000700088C1044E2
:1020E0001044088807F00000000000000000030C06
:1020F000030C0000000000000000000000010106C9
:1021000000000000000000000000008001400220EC
:1021100004100808100400000220022002200220FF
:102120000220022002200000000010040808041011
:10213000022001400080000000000E001200100C80
:10214000106C10800F00000003E00C1813E414243E
:1021500017C4082807D000000004003C03C41C403A
:10216000074000E4001C000410041FFC11041104CB
:1021700011040E880070000003E00C181004100415
:10218000100410081C10000010041FFC10041004A0
:102190001004080807F0000010041FFC11041104CB
:1021A00017C410040818000010041FFC11041100CB
:1021B00017C010000800000003E00C181004100401
:1021C00010441C780040000010041FFC10840080A4
:1021D000008010841FFC10040000100410041FFC79
:1021E00010041004000000000003000110011001A1
:1021F0001FFE10001000000010041FFC11040380DB
:102200001464181C1004000010041FFC10040004C7
:1022100000040004000C000010041FFC1F0000FC60
:102220001F001FFC1004000010041FFC0C0403001E
:1022300000E010181FFC100007F00808100410043C
:102240001004080807F0000010041FFC1084108020
:10225000108010800F00000007F0081810241024D0
:10226000101C080A07F2000010041FFC11041100E2
:1022700011C011300E0C000400000E1C110410845B
:10228000108410441C3800001800100010041FFCBB
:10229000100410001800000010001FF810040004C3
:1022A000000410041FF8100010001E0011E0001CB4
:1022B000007013801C0010001FC0103C00E01F00C5
:1022C00000E0103C1FC000001004180C163401C0C0
:1022D00001C01634180C100410001C00130400FC7C
:1022E00013041C00100000000804101C106410846B
:1022F00013041C04101800000000000000007FFE02
:102300004002400240020000000030000C00038048
:102310000060001C00030000000040024002400278
:102320007FFE0000000000000000000020004000D0
:1023300040004000200000000001000100010001F9
:1023400000010001000100010000400040002000E9
:10235000000000000000000000000098012401447B
:102360000144014400FC000410001FFC008801042B
:102370000104008800700000000000700088010463
:1023800001040104008800000000007000880104BE
:10239000010411081FFC0004000000F8014401447E
:1023A0000144014400C800000000010401040FFCC6
:1023B0001104110411001800000000D601290129A0
:1023C000012901C90106000010041FFC008401005E
:1023D0000100010400FC000400000104190419FCC0
:1023E00000040004000000000000000300010101DF
:1023F000190119FE0000000010041FFC0024004019
:1024000001B4010C010400000000100410041FFCC2
:102410000004000400000000010401FC01040100AC
:1024200001FC0104010000FC010401FC0084010026
:102430000100010400FC0004000000F80104010494
:102440000104010400F80000010101FF00850104FE
:102450000104008800700000000000700088010482
:102460000104010501FF00010104010401FC0084D5
:102470000104010001800000000000CC01240124BF
:10248000012401240198000000000100010007F868
:102490000104010400000000010001F80004000430
:1024A0000004010801FC0004010001800170000C1F
:1024B000001001600180010001F0010C003001C03A
:1024C0000030010C01F0010000000104018C0074D7
:1024D0000170018C01040000010101810171000EF5
:1024E000001801600180010000000184010C01342A
:1024F00001440184010C0000000000000000000005
:1025000001003EFC4002400200000000000000000C
:10251000FFFF0000000000000000400240023EFCFF
:10252000010000000000000000006000800080004A
:1025300040004000200020000000000000000000DB
:10254000000000000000000000000000000000008B
:10255000000000000000000000000000000000007B
:1025600000000000000000000000000F80380FFE97
:10257000380F80380000000000000000000000005C
:102580000000000000000100000600000C00003800
:1025900000003100000600000C0000380000300090
:1025A000000000000000000061800067F807F9806B
:1025B0000061800061800061800061800067F80731
:1025C000F98000618000000000000000000001C0F0
:1025D000E003E0F00630080418081FFFFE040E08B0
:1025E0000787F00381E000000000000001F0000612
:1025F0000C00040408060C7001F9C0000E00003B3A
:10260000E000EC18070808040C180003E0000000C4
:102610000001E00007F003F818041C08041708077D
:10262000E1D003C0E00023B0003C08002008000017
:102630001000000000000001000031000032000026
:102640001C0000000000000000000000000000006E
:10265000000000000000000000000000000000007A
:1026600000000000000000007F0001FFC00780F0B4
:102670000C001810000420000200000000000020E0
:1026800000021000040C00180780F001FFC0007F5A
:10269000000000000000000000000000000000003A
:1026A000000000004200006600006600003C0000E0
:1026B000180003FFC0001800003C00006600006620
:1026C00000004200000000000800000800000800B0
:1026D00000080000080001FFC0000800000800001A
:1026E00008000008000008000000000000010000D1
:1026F0003100003200001C0000000000000000005B
:1027000000000000000000000000000000000000C9
:102710000800000800000800000800000800000889
:102720000000080000080000080000080000000089
:1027300000000000000000003800003800003800F1
:102740000000000000000000000000000000000089
:102750000000000000000000000600001C000070E7
:10276000000180000E0000380000C0000700001CBF
:102770000000300000000000000000007F8001FF2A
:10278000E003807006001804000804000806001822
:1027900003807001FFE0007F800000000000000067
:1027A000000001000801000801000803FFF807FF0E
:1027B000F800000800000800000800000000000009
:1027C00000000001C03802C0580400980401180439
:1027D0000218040418061C1803F81801E0F8000099
:1027E0000000000000000001C0E003C0F004000889
:1027F00004080804080806180803F41801E7F000A4
:1028000001E0000000000000000000000300000DD7
:102810000000110000610000810803010807FFF8B3
:102820000FFFF80001080001080000000000000090
:1028300000E007FCD006080806100806100806107D
:1028400008061838060FF00607C000000000000058
:10285000000000003F8001FFE003843002081804FC
:102860001008041008041008071810030FF00007E0
:10287000C000000000000000000003C000070000CE
:102880000600000600F80607F806180006E0000734
:10289000000006000000000000000001E1E003F776
:1028A000F0063410041808041808040C08040C0876
:1028B00006161803F3F001C1E0000000000000005C
:1028C000F80003FC3003063804020804020804027E
:1028D000080404100308F001FFC0007F000000009E
:1028E00000000000000000000000000000000000E8
:1028F00070380070380070380000000000000000E0
:1029000000000000000000000000000000000000C7
:1029100000000000301A00301C0000000000000021
:10292000000000000000000000000000000000089F
:1029300000001400002200004100008080010040DF
:102940000200200400100800080000000000000041
:1029500021000021000021000021000021000021B1
:1029600000002100002100002100002100000000E3
:102970000000000000000800080400100200200110
:102980000040008080004100002200001400000888
:102990000000000000000003C00004C000040000AC
:1029A000080038080F380808380810000C300007F5
:1029B000E00003C000000000000000003F8000FFB6
:1029C000E0038070020F1006708804C0880483083A
:1029D000047F8802C09003012000FE400000080030
:1029E00000180001F8003E0801C20007020007E2DB
:1029F0000000FE00001FC80001F8000038000008B9
:102A000004000807FFF807FFF80408080408080492
:102A1000080804080806180803F41801E7F0000184
:102A2000E0000000000000003F8001FFE003807034
:102A3000020018040008040008040008040010063E
:102A400000200780C000000004000807FFF807FF0F
:102A5000F80400080400080400080400180200102C
:102A600003807001FFE0007F800000000400080781
:102A7000FFF807FFF8040808040808040808040819
:102A800008043E0804000806001801006000000069
:102A900004000807FFF807FFF8040808040800040A
:102AA0000800040800043E00060000060000018043
:102AB00000000000000000003F8001FFE003807084
:102AC0000600180400080402080402080203F007C4
:102AD00083F000020000020004000807FFF807FF6F
:102AE000F8040808000800000800000800000800BA
:102AF00004080807FFF807FFF804000800000000BA
:102B0000000004000804000804000807FFF807FF9D
:102B1000F804000804000804000800000000000099
:102B2000000000000006000007000001040001048E
:102B3000000104000307FFFE07FFFC04000004007F
:102B40000004000004000807FFF807FFF8040C0861
:102B5000001800003E0004C7800503C80600F80402
:102B6000003804001800000804000807FFF807FFF9
:102B7000F804000800000800000800000800000831
:102B800000000800001800006000000004000807B2
:102B9000FFF807800807FC00007FC00003F800076B
:102BA000C000780007800807FFF807FFF804000856
:102BB00004000807FFF807000803C00000E0000059
:102BC0003800001E000007000001C00400F007FFED
:102BD000F8040000000000007F8001FFE003807027
:102BE000060018040008040008060018030030015D
:102BF000FFE0007F8000000004000807FFF807FFE7
:102C0000F80404080404000404000404000404009C
:102C1000060C0003F80001F00000000000000000B6
:102C20007F8001FFE00380700600880400880400B4
:102C3000C806003C03003E01FFE6007F8400000060
:102C400004000807FFF807FFF80408080408000458
:102C50000C00040F00040BC00610F003F03801E074
:102C60000800000800000001E0F803F03006301012
:102C7000041808041808040C08040C0802061802BA
:102C800007F00781E000000001800006000004005A
:102C90000004000004000807FFF807FFF80400081C
:102CA000040000040000060000018000040000078A
:102CB000FFE007FFF0040018000008000008000013
:102CC0000800000800000804001007FFE0040000EE
:102CD00004000006000007E00007FE00041FE000FB
:102CE00001F80000380001E0043E0007C0000600C3
:102CF0000004000004000007E00007FFC0041FF804
:102D00000007C007F80007FF80043FF80007C00471
:102D1000F80007000004000000000004000806009E
:102D20001807C07805F1C8003E00001F800463E862
:102D30000780F806001804000800000004000006E0
:102D4000000007800007E008047C08001FF8000767
:102D5000F800180804E0080700000600000400005E
:102D60000000000100080600380400F80403E8042D
:102D70000F08047C0805F00807C0080700180400C5
:102D800060000000000000000000000000000000E3
:102D90000000003FFFFE2000022000022000022071
:102DA00000022000020000000000000000000800F7
:102DB0000007000000C0000038000006000001C04D
:102DC00000003000000E00000100000000000000C4
:102DD000000020000220000220000220000220004B
:102DE000023FFFFE000000000000000000000000A5
:102DF000000000000000000000080000100000308B
:102E0000000020000030000010000008000000005A
:102E100000000000000001000001000001000001AE
:102E2000000001000001000001000001000001009D
:102E3000000100000100000100000000000000008F
:102E40000020000020000010000010000000000022
:102E50000000000000000000000000000000000072
:102E600000F00019F8001B180022080026080024B2
:102E700008002410003FF8001FF8000008000018A8
:102E800000000004000007FFF80FFFF00018180012
:102E90001008002008002008003018001FF0000F64
:102EA000C00000000000000007C0001FF000183044
:102EB000002008002008002008003C08001C10002A
:102EC00000600000000000000000000007C0001FBC
:102ED000F000381800200800200800200804101016
:102EE00007FFF80FFFF000001000000000000000D6
:102EF00000000007C0001FF000123000221800225E
:102F000008002208003208001E10000E20000000F9
:102F100000000000200000200800200801FFF80346
:102F2000FFF80620080420080420080720000300FA
:102F30000000000000000000000E000E6E001FF3F5
:102F40000031B10020B10020B1003191001F130009
:102F50002E1E00200E00300000000004000807FFB5
:102F6000F80FFFF8001008002000002000002008E3
:102F7000003FF8001FF800000800000000000000FB
:102F80000000002008002008002008063FF8063F47
:102F9000F800000800000800000800000000000021
:102FA00000000000000000000300000300200100FA
:102FB0002001002003063FFE063FFC000000000049
:102FC0000000000000000004000807FFF80FFFF8F1
:102FD000000188000300002FC00038F800203800EE
:102FE00020080000080000000000000000000400AD
:102FF0000804000804000807FFF80FFFF8000008A5
:103000000000080000080000000000000020080088
:103010003FF8003FF8001008002000003FF8003F94
:10302000F8001008002000003FF8003FF8000008FA
:10303000000000002008003FF8003FF800100800E2
:103040001000002000002008003FF8001FF80000DA
:10305000080000000000000007C0000FF00018305A
:103060000030080020080020080030080018300058
:103070000FF00007C0000000000000002001003F2A
:10308000FF003FFF00101100200900200800200869
:10309000003038001FF0000FC000000000000000EA
:1030A00007C0001FF000381800200800200800208A
:1030B00009001011001FFF003FFF00000100000089
:1030C000002008002008002008003FF8003FF8001A
:1030D0000808001008002008002000003000003020
:1030E00000000000000000000000000C78001E1826
:1030F00000330800230800210800218800219800DF
:1031000030F00038600000000000000020000020C7
:103110000000200000FFF003FFF800200800200856
:103120000020080000300000000000000000000047
:103130002000003FF0007FF80000180000080000A9
:1031400008002010003FF8007FF000001000000091
:10315000000000002000003000003C00003F800024
:1031600023F0000078000070002380003C00003055
:1031700000002000002000003C00003FE00023F899
:103180000000E0002700003E00003FE00021F800C2
:1031900001E0003E000020000000000020080020A8
:1031A00008003838003E680027800003C8002CF86B
:1031B000003838002018002008000000000000003F
:1031C0002000003003003C01003F830023EC00009E
:1031D00070002380003C0000200000200000000060
:1031E0000000000000000038080020380020F8002F
:1031F00023E8002F88003E0800380800201800004F
:10320000700000000000000000000000000000004E
:103210000000000008000014001FF7FC300006202A
:10322000000200000000000000000000000000009C
:1032300000000000000000000000FFFFFF00000091
:10324000000000000000000000000000000000007E
:1032500000002000023000061FF7FC0014000008E8
:10326000000000000000000000000000000000005E
:103270000000001800006000004000004000002036
:1032800000001000000800000400000400000C0012
:1032900000100000B4320008000000204C160000AE
:1032A00090010008143600084C1600204C0900005C
:1032B000E017000892FA251E19E7037209330AC8BD
:1032C00084A24A04200A010203040607080902181E
:1032D0000E1010D0FF9014E4AFA4A4A4AFE4211307
:1032E000040312FF180B894B2A1A0E1A2A4B8880E6
:1032F000202A900120091010FF101011161010083C
:103300002060203F10101027030C102040F82FFEE3
:1033100002424ACA4A03344202FE400EFF40504C69
:103320004340404F50505C40FF1BF888012AFF0586
:10333000192E311B1F08012A7F10149F80F03B803B
:1033400082016009E2A2928A868280808440807F26
:10335000172424A4FEA3221B22CC5A4115080601DF
:10336000FF2B0104011DFF020202A0199A5B9008C5
:1033700063120810100444827F01808040432C10A7
:103380002846818019281E84E43C2724011AE40C75
:1033900011140402011BFF09014B49896415FE2227
:1033A0005A862BFE920129BF111DFF040807C52074
:1033B0000820030C14224140178040201806802D5D
:1033C000071820409E1201100B2070282621202073
:1033D0002438602301013B10123C3D92121202403E
:1033E000211A3F946B103FC51D8060F807431808F1
:1033F0000F08C8080828184019C82C100C031E1CF8
:10340000010618C015F01F10F01009808282E292A8
:103410008A868027402215081661593E0113C35839
:10342000381A20D9200CFE23222020FF20222CA095
:1034300020280A0848847F0241402013C042F84BEC
:103440007F49013951280A8141211D214181FF898C
:1034500001138181300F4454547F54544420282751
:10346000E4342CE016FF1555957F10090949897F32
:1034700009091F01161060020CC0100AF88888881C
:10348000FF8888A818181004047C0380601F8043FC
:103490002C1028468180C019011AFFC6171011167A
:1034A000D010101A80EC100C064120103F4442410D
:1034B000404078180902020AEAAAAAAAAF0415EA4B
:1034C0000A02021010824A2A1E0B4A8A7A02FA4B1A
:1034D0004A4AFA02101008F714549414F404807045
:1034E0008F0808F808180A1D13115599513F91418A
:1034F000C10413334080C35838201020242424FEF4
:1035000023222020FF20222CA02018080848847F96
:103510000241403F15142241F8201080642C3424CD
:1035200024EC322222322E23A260180E41219189EE
:10353000874D552525554D8180601D8060F807B465
:1035400010080F08C808082818220112FF17100CCD
:103550000340807F440106184BC080014BFC840867
:103560000336C0C03CFF7F40014AFF07043E40FFD6
:103570007F034A7F700373FCF86CFFFE02018BFF30
:10358000FF0B0268036C1F1F04017BFFFF0B02741B
:103590001F038C7F3F07FFF8F8F0F0702001E60270
:1035A00014801AFF0109122C09132D01FF01C0ED2F
:1035B000FFFFFE06011AFF01F915391603FF070286
:1035C00001D10C12FFFFFF1409101509151601FF98
:1035D00001C1EDFFFFFF180119140910153916017B
:1035E000FF01D204120201011AFF01011209122A7D
:1035F00001FF01D71AFF0101FF01FD05FF1F1F0F8A
:103600000F01E72D0102030404A0090607080902BF
:0436100004060800A4
:04000005080000ED02
:00000001FF
